{
  "abi": [
    {
      "inputs": [
        {
          "internalType": "string",
          "name": "_courseName",
          "type": "string"
        },
        {
          "internalType": "string",
          "name": "_tokenName",
          "type": "string"
        },
        {
          "internalType": "address",
          "name": "_owner",
          "type": "address"
        }
      ],
      "stateMutability": "nonpayable",
      "type": "constructor"
    },
    {
      "anonymous": false,
      "inputs": [
        {
          "indexed": false,
          "internalType": "address",
          "name": "owner",
          "type": "address"
        },
        {
          "indexed": false,
          "internalType": "uint256",
          "name": "tokenId",
          "type": "uint256"
        }
      ],
      "name": "Minted",
      "type": "event"
    },
    {
      "anonymous": false,
      "inputs": [
        {
          "indexed": false,
          "internalType": "address",
          "name": "owner",
          "type": "address"
        },
        {
          "indexed": false,
          "internalType": "uint256",
          "name": "tokenId",
          "type": "uint256"
        }
      ],
      "name": "Revoked",
      "type": "event"
    },
    {
      "anonymous": false,
      "inputs": [
        {
          "indexed": false,
          "internalType": "address",
          "name": "owner",
          "type": "address"
        },
        {
          "indexed": false,
          "internalType": "uint256",
          "name": "id",
          "type": "uint256"
        }
      ],
      "name": "newCertificateCreated",
      "type": "event"
    },
    {
      "anonymous": false,
      "inputs": [
        {
          "indexed": false,
          "internalType": "address",
          "name": "owner",
          "type": "address"
        },
        {
          "indexed": false,
          "internalType": "uint256",
          "name": "id",
          "type": "uint256"
        },
        {
          "indexed": false,
          "internalType": "string",
          "name": "uri",
          "type": "string"
        }
      ],
      "name": "newTokenUriSet",
      "type": "event"
    },
    {
      "inputs": [
        {
          "internalType": "address",
          "name": "",
          "type": "address"
        }
      ],
      "name": "OwnerToId",
      "outputs": [
        {
          "internalType": "uint256",
          "name": "",
          "type": "uint256"
        }
      ],
      "stateMutability": "view",
      "type": "function"
    },
    {
      "inputs": [
        {
          "internalType": "address",
          "name": "owner",
          "type": "address"
        }
      ],
      "name": "balanceOf",
      "outputs": [
        {
          "internalType": "uint256",
          "name": "",
          "type": "uint256"
        }
      ],
      "stateMutability": "view",
      "type": "function"
    },
    {
      "inputs": [
        {
          "internalType": "address",
          "name": "ownerOfCertificate",
          "type": "address"
        }
      ],
      "name": "createCertificate",
      "outputs": [],
      "stateMutability": "nonpayable",
      "type": "function"
    },
    {
      "inputs": [
        {
          "internalType": "address",
          "name": "_ownerOfCertificate",
          "type": "address"
        },
        {
          "internalType": "string",
          "name": "_tokenURI",
          "type": "string"
        }
      ],
      "name": "createCertificateAndSetToken",
      "outputs": [],
      "stateMutability": "nonpayable",
      "type": "function"
    },
    {
      "inputs": [
        {
          "internalType": "uint256",
          "name": "_tokenId",
          "type": "uint256"
        },
        {
          "internalType": "string",
          "name": "_tokenURI",
          "type": "string"
        }
      ],
      "name": "createTokenURI",
      "outputs": [],
      "stateMutability": "nonpayable",
      "type": "function"
    },
    {
      "inputs": [],
      "name": "emittedCount",
      "outputs": [
        {
          "internalType": "uint256",
          "name": "",
          "type": "uint256"
        }
      ],
      "stateMutability": "view",
      "type": "function"
    },
    {
      "inputs": [
        {
          "internalType": "uint256",
          "name": "tokenId",
          "type": "uint256"
        }
      ],
      "name": "getOwnerBasedOnIndex",
      "outputs": [
        {
          "internalType": "address",
          "name": "",
          "type": "address"
        }
      ],
      "stateMutability": "view",
      "type": "function"
    },
    {
      "inputs": [
        {
          "internalType": "address",
          "name": "owner",
          "type": "address"
        }
      ],
      "name": "hasValid",
      "outputs": [
        {
          "internalType": "bool",
          "name": "",
          "type": "bool"
        }
      ],
      "stateMutability": "view",
      "type": "function"
    },
    {
      "inputs": [],
      "name": "holdersCount",
      "outputs": [
        {
          "internalType": "uint256",
          "name": "",
          "type": "uint256"
        }
      ],
      "stateMutability": "view",
      "type": "function"
    },
    {
      "inputs": [
        {
          "internalType": "uint256",
          "name": "tokenId",
          "type": "uint256"
        }
      ],
      "name": "isValid",
      "outputs": [
        {
          "internalType": "bool",
          "name": "",
          "type": "bool"
        }
      ],
      "stateMutability": "view",
      "type": "function"
    },
    {
      "inputs": [],
      "name": "name",
      "outputs": [
        {
          "internalType": "string",
          "name": "",
          "type": "string"
        }
      ],
      "stateMutability": "view",
      "type": "function"
    },
    {
      "inputs": [
        {
          "internalType": "uint256",
          "name": "tokenId",
          "type": "uint256"
        }
      ],
      "name": "ownerOf",
      "outputs": [
        {
          "internalType": "address",
          "name": "",
          "type": "address"
        }
      ],
      "stateMutability": "view",
      "type": "function"
    },
    {
      "inputs": [
        {
          "internalType": "bytes4",
          "name": "interfaceId",
          "type": "bytes4"
        }
      ],
      "name": "supportsInterface",
      "outputs": [
        {
          "internalType": "bool",
          "name": "",
          "type": "bool"
        }
      ],
      "stateMutability": "view",
      "type": "function"
    },
    {
      "inputs": [],
      "name": "symbol",
      "outputs": [
        {
          "internalType": "string",
          "name": "",
          "type": "string"
        }
      ],
      "stateMutability": "view",
      "type": "function"
    },
    {
      "inputs": [
        {
          "internalType": "uint256",
          "name": "index",
          "type": "uint256"
        }
      ],
      "name": "tokenByIndex",
      "outputs": [
        {
          "internalType": "uint256",
          "name": "",
          "type": "uint256"
        }
      ],
      "stateMutability": "view",
      "type": "function"
    },
    {
      "inputs": [
        {
          "internalType": "address",
          "name": "owner",
          "type": "address"
        },
        {
          "internalType": "uint256",
          "name": "index",
          "type": "uint256"
        }
      ],
      "name": "tokenOfOwnerByIndex",
      "outputs": [
        {
          "internalType": "uint256",
          "name": "",
          "type": "uint256"
        }
      ],
      "stateMutability": "view",
      "type": "function"
    },
    {
      "inputs": [
        {
          "internalType": "uint256",
          "name": "tokenId",
          "type": "uint256"
        }
      ],
      "name": "tokenURI",
      "outputs": [
        {
          "internalType": "string",
          "name": "",
          "type": "string"
        }
      ],
      "stateMutability": "view",
      "type": "function"
    }
  ],
  "bytecode": "60806040523480156200001157600080fd5b506040516200148938038062001489833981016040819052620000349162000211565b8251839083906200004d9060049060208501906200009e565b508051620000639060059060208401906200009e565b505060088054336001600160a01b031991821617909155600b80549091166001600160a01b03939093169290921790915550620002db915050565b828054620000ac906200029e565b90600052602060002090601f016020900481019282620000d057600085556200011b565b82601f10620000eb57805160ff19168380011785556200011b565b828001600101855582156200011b579182015b828111156200011b578251825591602001919060010190620000fe565b50620001299291506200012d565b5090565b5b808211156200012957600081556001016200012e565b634e487b7160e01b600052604160045260246000fd5b600082601f8301126200016c57600080fd5b81516001600160401b038082111562000189576200018962000144565b604051601f8301601f19908116603f01168101908282118183101715620001b457620001b462000144565b81604052838152602092508683858801011115620001d157600080fd5b600091505b83821015620001f55785820183015181830184015290820190620001d6565b83821115620002075760008385830101525b9695505050505050565b6000806000606084860312156200022757600080fd5b83516001600160401b03808211156200023f57600080fd5b6200024d878388016200015a565b945060208601519150808211156200026457600080fd5b5062000273868287016200015a565b604086015190935090506001600160a01b03811681146200029357600080fd5b809150509250925092565b600181811c90821680620002b357607f821691505b60208210811415620002d557634e487b7160e01b600052602260045260246000fd5b50919050565b61119e80620002eb6000396000f3fe608060405234801561001057600080fd5b506004361061010b5760003560e01c80636352211e116100a257806391b669ad1161007157806391b669ad1461025257806395d89b4114610265578063c87b56dd1461026d578063f577a50014610280578063fb157f591461029357600080fd5b80636352211e146101d65780636b4ed21b1461020157806370a08231146102095780637a83ca841461023257600080fd5b806329027aec116100de57806329027aec146101745780632f745c5914610187578063439455121461019a5780634f6ccce7146101c557600080fd5b806301ffc9a71461011057806302d64bf11461013857806306fdde031461014d57806326019c1814610162575b600080fd5b61012361011e366004610dae565b6102bf565b60405190151581526020015b60405180910390f35b61014b610146366004610e97565b61032c565b005b6101556103f9565b60405161012f9190610f41565b6006545b60405190815260200161012f565b61014b610182366004610f54565b61048b565b610166610195366004610f6f565b610528565b6101236101a8366004610f54565b6001600160a01b0316600090815260036020526040902054151590565b6101666101d3366004610f99565b90565b6101e96101e4366004610f99565b6105ad565b6040516001600160a01b03909116815260200161012f565b600754610166565b610166610217366004610f54565b6001600160a01b031660009081526001602052604090205490565b610166610240366004610f54565b600a6020526000908152604090205481565b61014b610260366004610fb2565b6105cb565b61015561064d565b61015561027b366004610f99565b61065c565b61012361028e366004610f99565b610804565b6101e96102a1366004610f99565b6000908152602081905260409020600101546001600160a01b031690565b60006001600160e01b0319821663a511533d60e01b14806102f057506001600160e01b03198216635b5e139f60e01b145b8061030b57506001600160e01b03198216632d57debd60e01b145b8061032657506301ffc9a760e01b6001600160e01b03198316145b92915050565b600b546001600160a01b0316331461035f5760405162461bcd60e51b815260040161035690610fe3565b60405180910390fd5b61036882610823565b50600161037460065490565b61037e9190611030565b6001600160a01b0383166000908152600a602052604090208190556103a39082610892565b6001600160a01b0382166000818152600a6020908152604091829020548251938452908301527fc0fec69a370eeb4b030c24750d3565c38f525239af926c03f0baba1503d965a091015b60405180910390a15050565b60606004805461040890611047565b80601f016020809104026020016040519081016040528092919081815260200182805461043490611047565b80156104815780601f1061045657610100808354040283529160200191610481565b820191906000526020600020905b81548152906001019060200180831161046457829003601f168201915b5050505050905090565b600b546001600160a01b031633146104b55760405162461bcd60e51b815260040161035690610fe3565b6104be81610823565b506006546001600160a01b038281166000818152600a6020908152604080832095909555600b549093168152839020548351918252918101919091527fc0fec69a370eeb4b030c24750d3565c38f525239af926c03f0baba1503d965a0910160405180910390a150565b6001600160a01b0382166000908152600160205260408120805483106105875760405162461bcd60e51b8152602060048201526014602482015273151bdad95b88191bd95cc81b9bdd08195e1a5cdd60621b6044820152606401610356565b80838154811061059957610599611082565b906000526020600020015491505092915050565b60006105b882610935565b600101546001600160a01b031692915050565b600b546001600160a01b031633146105f55760405162461bcd60e51b815260040161035690610fe3565b6105ff8282610892565b6000828152602081905260409020600101547ffbfa2e72e1ab1e10a8b9e46851482d1c25490c68fc5a42952c3769e53a2aedd0906001600160a01b031683836040516103ed93929190611098565b60606005805461040890611047565b6000818152602081905260409020600101546060906001600160a01b03166106e15760405162461bcd60e51b815260206004820152603260248201527f4552433436373155524953746f726167653a2055524920717565727920666f72604482015271103737b732bc34b9ba32b73a103a37b5b2b760711b6064820152608401610356565b600082815260096020526040812080546106fa90611047565b80601f016020809104026020016040519081016040528092919081815260200182805461072690611047565b80156107735780601f1061074857610100808354040283529160200191610773565b820191906000526020600020905b81548152906001019060200180831161075657829003601f168201915b5050505050905060006107ae60408051808201909152601581527468747470733a2f2f697066732e696f2f697066732f60581b602082015290565b90508051600014156107c1575092915050565b8151156107f35780826040516020016107db9291906110c8565b60405160208183030381529060405292505050919050565b6107fc84610994565b949350505050565b600061080f82610935565b60010154600160a01b900460ff1692915050565b60065461083282826001610a9d565b604080516001600160a01b0384168152602081018390527f30385c845b448a36257a6a1716e6ad2e1bc2cbe333cde1e69fe849ad6511adfe910160405180910390a160016006600082825461088791906110f7565b909155509092915050565b6000828152602081905260409020600101546001600160a01b03166109115760405162461bcd60e51b815260206004820152602f60248201527f4552433436373155524953746f726167653a2055524920736574206f66206e6f60448201526e3732bc34b9ba32b73a103a37b5b2b760891b6064820152608401610356565b6000828152600960209081526040909120825161093092840190610d15565b505050565b600081815260208190526040812060018101546001600160a01b03166103265760405162461bcd60e51b8152602060048201526014602482015273151bdad95b88191bd95cc81b9bdd08195e1a5cdd60621b6044820152606401610356565b6000818152602081905260409020600101546060906001600160a01b0316610a175760405162461bcd60e51b815260206004820152603060248201527f455243343637314d657461646174613a2055524920717565727920666f72206e60448201526f37b732bc34b9ba32b73a103a37b5b2b760811b6064820152608401610356565b6000610a4b60408051808201909152601581527468747470733a2f2f697066732e696f2f697066732f60581b602082015290565b90506000815111610a6b5760405180602001604052806000815250610a96565b80610a7584610c17565b604051602001610a869291906110c8565b6040516020818303038152906040525b9392505050565b6000828152602081905260409020600101546001600160a01b031615610b055760405162461bcd60e51b815260206004820152601d60248201527f43616e6e6f74206d696e7420616e2061737369676e656420746f6b656e0000006044820152606401610356565b6001600160a01b038316600090815260016020526040902054610b3b57600160076000828254610b3591906110f7565b90915550505b604080516060810182523381526001600160a01b0385811660208084018281528615801586880190815260008a8152808552888120975188549088166001600160a01b031990911617885592516001978801805492511515600160a01b026001600160a81b03199093169190971617179094559182528381528482208054600283528684208985528352958320869055848252938501845592815291909120909101839055610930576001600160a01b0383166000908152600360205260408120805460019290610c0d9084906110f7565b9091555050505050565b606081610c3b5750506040805180820190915260018152600360fc1b602082015290565b8160005b8115610c655780610c4f8161110f565b9150610c5e9050600a83611140565b9150610c3f565b60008167ffffffffffffffff811115610c8057610c80610df4565b6040519080825280601f01601f191660200182016040528015610caa576020820181803683370190505b5090505b84156107fc57610cbf600183611030565b9150610ccc600a86611154565b610cd79060306110f7565b60f81b818381518110610cec57610cec611082565b60200101906001600160f81b031916908160001a905350610d0e600a86611140565b9450610cae565b828054610d2190611047565b90600052602060002090601f016020900481019282610d435760008555610d89565b82601f10610d5c57805160ff1916838001178555610d89565b82800160010185558215610d89579182015b82811115610d89578251825591602001919060010190610d6e565b50610d95929150610d99565b5090565b5b80821115610d955760008155600101610d9a565b600060208284031215610dc057600080fd5b81356001600160e01b031981168114610a9657600080fd5b80356001600160a01b0381168114610def57600080fd5b919050565b634e487b7160e01b600052604160045260246000fd5b600082601f830112610e1b57600080fd5b813567ffffffffffffffff80821115610e3657610e36610df4565b604051601f8301601f19908116603f01168101908282118183101715610e5e57610e5e610df4565b81604052838152866020858801011115610e7757600080fd5b836020870160208301376000602085830101528094505050505092915050565b60008060408385031215610eaa57600080fd5b610eb383610dd8565b9150602083013567ffffffffffffffff811115610ecf57600080fd5b610edb85828601610e0a565b9150509250929050565b60005b83811015610f00578181015183820152602001610ee8565b83811115610f0f576000848401525b50505050565b60008151808452610f2d816020860160208601610ee5565b601f01601f19169290920160200192915050565b602081526000610a966020830184610f15565b600060208284031215610f6657600080fd5b610a9682610dd8565b60008060408385031215610f8257600080fd5b610f8b83610dd8565b946020939093013593505050565b600060208284031215610fab57600080fd5b5035919050565b60008060408385031215610fc557600080fd5b82359150602083013567ffffffffffffffff811115610ecf57600080fd5b6020808252601e908201527f596f75206d7573742062652074686520636f6e7472616374206f776e65720000604082015260600190565b634e487b7160e01b600052601160045260246000fd5b6000828210156110425761104261101a565b500390565b600181811c9082168061105b57607f821691505b6020821081141561107c57634e487b7160e01b600052602260045260246000fd5b50919050565b634e487b7160e01b600052603260045260246000fd5b60018060a01b03841681528260208201526060604082015260006110bf6060830184610f15565b95945050505050565b600083516110da818460208801610ee5565b8351908301906110ee818360208801610ee5565b01949350505050565b6000821982111561110a5761110a61101a565b500190565b60006000198214156111235761112361101a565b5060010190565b634e487b7160e01b600052601260045260246000fd5b60008261114f5761114f61112a565b500490565b6000826111635761116361112a565b50069056fea264697066735822122029328008ae180f0ada6690adf8e37365fee9b49a1ebad477660f984aa740f7e764736f6c634300080b0033",
  "bytecodeSha1": "a3c7cc6b0916b731b87afacc1330ccc6cc8be80f",
  "compiler": {
    "evm_version": "istanbul",
    "optimizer": {
      "enabled": true,
      "runs": 200
    },
    "version": "0.8.11+commit.d7f03943"
  },
  "contractName": "Course",
  "language": "Solidity",
  "natspec": {
    "kind": "dev",
    "methods": {
      "balanceOf(address)": {
        "notice": "Count all tokens assigned to an owner",
        "params": {
          "owner": "Address for whom to query the balance"
        },
        "returns": {
          "_0": "Number of tokens owned by `owner`"
        }
      },
      "emittedCount()": {
        "returns": {
          "_0": "emittedCount Number of tokens emitted"
        }
      },
      "hasValid(address)": {
        "notice": "Check if an address owns a valid token in the contract",
        "params": {
          "owner": "Address for whom to check the ownership"
        },
        "returns": {
          "_0": "True if `owner` has a valid token, false otherwise"
        }
      },
      "holdersCount()": {
        "returns": {
          "_0": "holdersCount Number of token holders"
        }
      },
      "isValid(uint256)": {
        "notice": "Check if a token hasn't been revoked",
        "params": {
          "tokenId": "Identifier of the token"
        },
        "returns": {
          "_0": "True if the token is valid, false otherwise"
        }
      },
      "name()": {
        "returns": {
          "_0": "Descriptive name of the tokens in this contract"
        }
      },
      "ownerOf(uint256)": {
        "notice": "Get owner of a token",
        "params": {
          "tokenId": "Identifier of the token"
        },
        "returns": {
          "_0": "Address of the owner of `tokenId`"
        }
      },
      "symbol()": {
        "returns": {
          "_0": "An abbreviated name of the tokens in this contract"
        }
      },
      "tokenByIndex(uint256)": {
        "notice": "Get a tokenId by it's index, where 0 <= index < total()",
        "params": {
          "index": "Index of the token"
        },
        "returns": {
          "_0": "tokenId of the token"
        }
      },
      "tokenOfOwnerByIndex(address,uint256)": {
        "notice": "Get the tokenId of a token using its position in the owner's list",
        "params": {
          "index": "Index of the token",
          "owner": "Address for whom to get the token"
        },
        "returns": {
          "_0": "tokenId of the token"
        }
      },
      "tokenURI(uint256)": {
        "details": "See {IERC721Metadata-tokenURI}."
      }
    },
    "version": 1
  },
  "opcodes": "PUSH1 0x80 PUSH1 0x40 MSTORE CALLVALUE DUP1 ISZERO PUSH2 0x10 JUMPI PUSH1 0x0 DUP1 REVERT JUMPDEST POP PUSH1 0x4 CALLDATASIZE LT PUSH2 0x10B JUMPI PUSH1 0x0 CALLDATALOAD PUSH1 0xE0 SHR DUP1 PUSH4 0x6352211E GT PUSH2 0xA2 JUMPI DUP1 PUSH4 0x91B669AD GT PUSH2 0x71 JUMPI DUP1 PUSH4 0x91B669AD EQ PUSH2 0x252 JUMPI DUP1 PUSH4 0x95D89B41 EQ PUSH2 0x265 JUMPI DUP1 PUSH4 0xC87B56DD EQ PUSH2 0x26D JUMPI DUP1 PUSH4 0xF577A500 EQ PUSH2 0x280 JUMPI DUP1 PUSH4 0xFB157F59 EQ PUSH2 0x293 JUMPI PUSH1 0x0 DUP1 REVERT JUMPDEST DUP1 PUSH4 0x6352211E EQ PUSH2 0x1D6 JUMPI DUP1 PUSH4 0x6B4ED21B EQ PUSH2 0x201 JUMPI DUP1 PUSH4 0x70A08231 EQ PUSH2 0x209 JUMPI DUP1 PUSH4 0x7A83CA84 EQ PUSH2 0x232 JUMPI PUSH1 0x0 DUP1 REVERT JUMPDEST DUP1 PUSH4 0x29027AEC GT PUSH2 0xDE JUMPI DUP1 PUSH4 0x29027AEC EQ PUSH2 0x174 JUMPI DUP1 PUSH4 0x2F745C59 EQ PUSH2 0x187 JUMPI DUP1 PUSH4 0x43945512 EQ PUSH2 0x19A JUMPI DUP1 PUSH4 0x4F6CCCE7 EQ PUSH2 0x1C5 JUMPI PUSH1 0x0 DUP1 REVERT JUMPDEST DUP1 PUSH4 0x1FFC9A7 EQ PUSH2 0x110 JUMPI DUP1 PUSH4 0x2D64BF1 EQ PUSH2 0x138 JUMPI DUP1 PUSH4 0x6FDDE03 EQ PUSH2 0x14D JUMPI DUP1 PUSH4 0x26019C18 EQ PUSH2 0x162 JUMPI JUMPDEST PUSH1 0x0 DUP1 REVERT JUMPDEST PUSH2 0x123 PUSH2 0x11E CALLDATASIZE PUSH1 0x4 PUSH2 0xDAE JUMP JUMPDEST PUSH2 0x2BF JUMP JUMPDEST PUSH1 0x40 MLOAD SWAP1 ISZERO ISZERO DUP2 MSTORE PUSH1 0x20 ADD JUMPDEST PUSH1 0x40 MLOAD DUP1 SWAP2 SUB SWAP1 RETURN JUMPDEST PUSH2 0x14B PUSH2 0x146 CALLDATASIZE PUSH1 0x4 PUSH2 0xE97 JUMP JUMPDEST PUSH2 0x32C JUMP JUMPDEST STOP JUMPDEST PUSH2 0x155 PUSH2 0x3F9 JUMP JUMPDEST PUSH1 0x40 MLOAD PUSH2 0x12F SWAP2 SWAP1 PUSH2 0xF41 JUMP JUMPDEST PUSH1 0x6 SLOAD JUMPDEST PUSH1 0x40 MLOAD SWAP1 DUP2 MSTORE PUSH1 0x20 ADD PUSH2 0x12F JUMP JUMPDEST PUSH2 0x14B PUSH2 0x182 CALLDATASIZE PUSH1 0x4 PUSH2 0xF54 JUMP JUMPDEST PUSH2 0x48B JUMP JUMPDEST PUSH2 0x166 PUSH2 0x195 CALLDATASIZE PUSH1 0x4 PUSH2 0xF6F JUMP JUMPDEST PUSH2 0x528 JUMP JUMPDEST PUSH2 0x123 PUSH2 0x1A8 CALLDATASIZE PUSH1 0x4 PUSH2 0xF54 JUMP JUMPDEST PUSH1 0x1 PUSH1 0x1 PUSH1 0xA0 SHL SUB AND PUSH1 0x0 SWAP1 DUP2 MSTORE PUSH1 0x3 PUSH1 0x20 MSTORE PUSH1 0x40 SWAP1 KECCAK256 SLOAD ISZERO ISZERO SWAP1 JUMP JUMPDEST PUSH2 0x166 PUSH2 0x1D3 CALLDATASIZE PUSH1 0x4 PUSH2 0xF99 JUMP JUMPDEST SWAP1 JUMP JUMPDEST PUSH2 0x1E9 PUSH2 0x1E4 CALLDATASIZE PUSH1 0x4 PUSH2 0xF99 JUMP JUMPDEST PUSH2 0x5AD JUMP JUMPDEST PUSH1 0x40 MLOAD PUSH1 0x1 PUSH1 0x1 PUSH1 0xA0 SHL SUB SWAP1 SWAP2 AND DUP2 MSTORE PUSH1 0x20 ADD PUSH2 0x12F JUMP JUMPDEST PUSH1 0x7 SLOAD PUSH2 0x166 JUMP JUMPDEST PUSH2 0x166 PUSH2 0x217 CALLDATASIZE PUSH1 0x4 PUSH2 0xF54 JUMP JUMPDEST PUSH1 0x1 PUSH1 0x1 PUSH1 0xA0 SHL SUB AND PUSH1 0x0 SWAP1 DUP2 MSTORE PUSH1 0x1 PUSH1 0x20 MSTORE PUSH1 0x40 SWAP1 KECCAK256 SLOAD SWAP1 JUMP JUMPDEST PUSH2 0x166 PUSH2 0x240 CALLDATASIZE PUSH1 0x4 PUSH2 0xF54 JUMP JUMPDEST PUSH1 0xA PUSH1 0x20 MSTORE PUSH1 0x0 SWAP1 DUP2 MSTORE PUSH1 0x40 SWAP1 KECCAK256 SLOAD DUP2 JUMP JUMPDEST PUSH2 0x14B PUSH2 0x260 CALLDATASIZE PUSH1 0x4 PUSH2 0xFB2 JUMP JUMPDEST PUSH2 0x5CB JUMP JUMPDEST PUSH2 0x155 PUSH2 0x64D JUMP JUMPDEST PUSH2 0x155 PUSH2 0x27B CALLDATASIZE PUSH1 0x4 PUSH2 0xF99 JUMP JUMPDEST PUSH2 0x65C JUMP JUMPDEST PUSH2 0x123 PUSH2 0x28E CALLDATASIZE PUSH1 0x4 PUSH2 0xF99 JUMP JUMPDEST PUSH2 0x804 JUMP JUMPDEST PUSH2 0x1E9 PUSH2 0x2A1 CALLDATASIZE PUSH1 0x4 PUSH2 0xF99 JUMP JUMPDEST PUSH1 0x0 SWAP1 DUP2 MSTORE PUSH1 0x20 DUP2 SWAP1 MSTORE PUSH1 0x40 SWAP1 KECCAK256 PUSH1 0x1 ADD SLOAD PUSH1 0x1 PUSH1 0x1 PUSH1 0xA0 SHL SUB AND SWAP1 JUMP JUMPDEST PUSH1 0x0 PUSH1 0x1 PUSH1 0x1 PUSH1 0xE0 SHL SUB NOT DUP3 AND PUSH4 0xA511533D PUSH1 0xE0 SHL EQ DUP1 PUSH2 0x2F0 JUMPI POP PUSH1 0x1 PUSH1 0x1 PUSH1 0xE0 SHL SUB NOT DUP3 AND PUSH4 0x5B5E139F PUSH1 0xE0 SHL EQ JUMPDEST DUP1 PUSH2 0x30B JUMPI POP PUSH1 0x1 PUSH1 0x1 PUSH1 0xE0 SHL SUB NOT DUP3 AND PUSH4 0x2D57DEBD PUSH1 0xE0 SHL EQ JUMPDEST DUP1 PUSH2 0x326 JUMPI POP PUSH4 0x1FFC9A7 PUSH1 0xE0 SHL PUSH1 0x1 PUSH1 0x1 PUSH1 0xE0 SHL SUB NOT DUP4 AND EQ JUMPDEST SWAP3 SWAP2 POP POP JUMP JUMPDEST PUSH1 0xB SLOAD PUSH1 0x1 PUSH1 0x1 PUSH1 0xA0 SHL SUB AND CALLER EQ PUSH2 0x35F JUMPI PUSH1 0x40 MLOAD PUSH3 0x461BCD PUSH1 0xE5 SHL DUP2 MSTORE PUSH1 0x4 ADD PUSH2 0x356 SWAP1 PUSH2 0xFE3 JUMP JUMPDEST PUSH1 0x40 MLOAD DUP1 SWAP2 SUB SWAP1 REVERT JUMPDEST PUSH2 0x368 DUP3 PUSH2 0x823 JUMP JUMPDEST POP PUSH1 0x1 PUSH2 0x374 PUSH1 0x6 SLOAD SWAP1 JUMP JUMPDEST PUSH2 0x37E SWAP2 SWAP1 PUSH2 0x1030 JUMP JUMPDEST PUSH1 0x1 PUSH1 0x1 PUSH1 0xA0 SHL SUB DUP4 AND PUSH1 0x0 SWAP1 DUP2 MSTORE PUSH1 0xA PUSH1 0x20 MSTORE PUSH1 0x40 SWAP1 KECCAK256 DUP2 SWAP1 SSTORE PUSH2 0x3A3 SWAP1 DUP3 PUSH2 0x892 JUMP JUMPDEST PUSH1 0x1 PUSH1 0x1 PUSH1 0xA0 SHL SUB DUP3 AND PUSH1 0x0 DUP2 DUP2 MSTORE PUSH1 0xA PUSH1 0x20 SWAP1 DUP2 MSTORE PUSH1 0x40 SWAP2 DUP3 SWAP1 KECCAK256 SLOAD DUP3 MLOAD SWAP4 DUP5 MSTORE SWAP1 DUP4 ADD MSTORE PUSH32 0xC0FEC69A370EEB4B030C24750D3565C38F525239AF926C03F0BABA1503D965A0 SWAP2 ADD JUMPDEST PUSH1 0x40 MLOAD DUP1 SWAP2 SUB SWAP1 LOG1 POP POP JUMP JUMPDEST PUSH1 0x60 PUSH1 0x4 DUP1 SLOAD PUSH2 0x408 SWAP1 PUSH2 0x1047 JUMP JUMPDEST DUP1 PUSH1 0x1F ADD PUSH1 0x20 DUP1 SWAP2 DIV MUL PUSH1 0x20 ADD PUSH1 0x40 MLOAD SWAP1 DUP2 ADD PUSH1 0x40 MSTORE DUP1 SWAP3 SWAP2 SWAP1 DUP2 DUP2 MSTORE PUSH1 0x20 ADD DUP3 DUP1 SLOAD PUSH2 0x434 SWAP1 PUSH2 0x1047 JUMP JUMPDEST DUP1 ISZERO PUSH2 0x481 JUMPI DUP1 PUSH1 0x1F LT PUSH2 0x456 JUMPI PUSH2 0x100 DUP1 DUP4 SLOAD DIV MUL DUP4 MSTORE SWAP2 PUSH1 0x20 ADD SWAP2 PUSH2 0x481 JUMP JUMPDEST DUP3 ADD SWAP2 SWAP1 PUSH1 0x0 MSTORE PUSH1 0x20 PUSH1 0x0 KECCAK256 SWAP1 JUMPDEST DUP2 SLOAD DUP2 MSTORE SWAP1 PUSH1 0x1 ADD SWAP1 PUSH1 0x20 ADD DUP1 DUP4 GT PUSH2 0x464 JUMPI DUP3 SWAP1 SUB PUSH1 0x1F AND DUP3 ADD SWAP2 JUMPDEST POP POP POP POP POP SWAP1 POP SWAP1 JUMP JUMPDEST PUSH1 0xB SLOAD PUSH1 0x1 PUSH1 0x1 PUSH1 0xA0 SHL SUB AND CALLER EQ PUSH2 0x4B5 JUMPI PUSH1 0x40 MLOAD PUSH3 0x461BCD PUSH1 0xE5 SHL DUP2 MSTORE PUSH1 0x4 ADD PUSH2 0x356 SWAP1 PUSH2 0xFE3 JUMP JUMPDEST PUSH2 0x4BE DUP2 PUSH2 0x823 JUMP JUMPDEST POP PUSH1 0x6 SLOAD PUSH1 0x1 PUSH1 0x1 PUSH1 0xA0 SHL SUB DUP3 DUP2 AND PUSH1 0x0 DUP2 DUP2 MSTORE PUSH1 0xA PUSH1 0x20 SWAP1 DUP2 MSTORE PUSH1 0x40 DUP1 DUP4 KECCAK256 SWAP6 SWAP1 SWAP6 SSTORE PUSH1 0xB SLOAD SWAP1 SWAP4 AND DUP2 MSTORE DUP4 SWAP1 KECCAK256 SLOAD DUP4 MLOAD SWAP2 DUP3 MSTORE SWAP2 DUP2 ADD SWAP2 SWAP1 SWAP2 MSTORE PUSH32 0xC0FEC69A370EEB4B030C24750D3565C38F525239AF926C03F0BABA1503D965A0 SWAP2 ADD PUSH1 0x40 MLOAD DUP1 SWAP2 SUB SWAP1 LOG1 POP JUMP JUMPDEST PUSH1 0x1 PUSH1 0x1 PUSH1 0xA0 SHL SUB DUP3 AND PUSH1 0x0 SWAP1 DUP2 MSTORE PUSH1 0x1 PUSH1 0x20 MSTORE PUSH1 0x40 DUP2 KECCAK256 DUP1 SLOAD DUP4 LT PUSH2 0x587 JUMPI PUSH1 0x40 MLOAD PUSH3 0x461BCD PUSH1 0xE5 SHL DUP2 MSTORE PUSH1 0x20 PUSH1 0x4 DUP3 ADD MSTORE PUSH1 0x14 PUSH1 0x24 DUP3 ADD MSTORE PUSH20 0x151BDAD95B88191BD95CC81B9BDD08195E1A5CDD PUSH1 0x62 SHL PUSH1 0x44 DUP3 ADD MSTORE PUSH1 0x64 ADD PUSH2 0x356 JUMP JUMPDEST DUP1 DUP4 DUP2 SLOAD DUP2 LT PUSH2 0x599 JUMPI PUSH2 0x599 PUSH2 0x1082 JUMP JUMPDEST SWAP1 PUSH1 0x0 MSTORE PUSH1 0x20 PUSH1 0x0 KECCAK256 ADD SLOAD SWAP2 POP POP SWAP3 SWAP2 POP POP JUMP JUMPDEST PUSH1 0x0 PUSH2 0x5B8 DUP3 PUSH2 0x935 JUMP JUMPDEST PUSH1 0x1 ADD SLOAD PUSH1 0x1 PUSH1 0x1 PUSH1 0xA0 SHL SUB AND SWAP3 SWAP2 POP POP JUMP JUMPDEST PUSH1 0xB SLOAD PUSH1 0x1 PUSH1 0x1 PUSH1 0xA0 SHL SUB AND CALLER EQ PUSH2 0x5F5 JUMPI PUSH1 0x40 MLOAD PUSH3 0x461BCD PUSH1 0xE5 SHL DUP2 MSTORE PUSH1 0x4 ADD PUSH2 0x356 SWAP1 PUSH2 0xFE3 JUMP JUMPDEST PUSH2 0x5FF DUP3 DUP3 PUSH2 0x892 JUMP JUMPDEST PUSH1 0x0 DUP3 DUP2 MSTORE PUSH1 0x20 DUP2 SWAP1 MSTORE PUSH1 0x40 SWAP1 KECCAK256 PUSH1 0x1 ADD SLOAD PUSH32 0xFBFA2E72E1AB1E10A8B9E46851482D1C25490C68FC5A42952C3769E53A2AEDD0 SWAP1 PUSH1 0x1 PUSH1 0x1 PUSH1 0xA0 SHL SUB AND DUP4 DUP4 PUSH1 0x40 MLOAD PUSH2 0x3ED SWAP4 SWAP3 SWAP2 SWAP1 PUSH2 0x1098 JUMP JUMPDEST PUSH1 0x60 PUSH1 0x5 DUP1 SLOAD PUSH2 0x408 SWAP1 PUSH2 0x1047 JUMP JUMPDEST PUSH1 0x0 DUP2 DUP2 MSTORE PUSH1 0x20 DUP2 SWAP1 MSTORE PUSH1 0x40 SWAP1 KECCAK256 PUSH1 0x1 ADD SLOAD PUSH1 0x60 SWAP1 PUSH1 0x1 PUSH1 0x1 PUSH1 0xA0 SHL SUB AND PUSH2 0x6E1 JUMPI PUSH1 0x40 MLOAD PUSH3 0x461BCD PUSH1 0xE5 SHL DUP2 MSTORE PUSH1 0x20 PUSH1 0x4 DUP3 ADD MSTORE PUSH1 0x32 PUSH1 0x24 DUP3 ADD MSTORE PUSH32 0x4552433436373155524953746F726167653A2055524920717565727920666F72 PUSH1 0x44 DUP3 ADD MSTORE PUSH18 0x103737B732BC34B9BA32B73A103A37B5B2B7 PUSH1 0x71 SHL PUSH1 0x64 DUP3 ADD MSTORE PUSH1 0x84 ADD PUSH2 0x356 JUMP JUMPDEST PUSH1 0x0 DUP3 DUP2 MSTORE PUSH1 0x9 PUSH1 0x20 MSTORE PUSH1 0x40 DUP2 KECCAK256 DUP1 SLOAD PUSH2 0x6FA SWAP1 PUSH2 0x1047 JUMP JUMPDEST DUP1 PUSH1 0x1F ADD PUSH1 0x20 DUP1 SWAP2 DIV MUL PUSH1 0x20 ADD PUSH1 0x40 MLOAD SWAP1 DUP2 ADD PUSH1 0x40 MSTORE DUP1 SWAP3 SWAP2 SWAP1 DUP2 DUP2 MSTORE PUSH1 0x20 ADD DUP3 DUP1 SLOAD PUSH2 0x726 SWAP1 PUSH2 0x1047 JUMP JUMPDEST DUP1 ISZERO PUSH2 0x773 JUMPI DUP1 PUSH1 0x1F LT PUSH2 0x748 JUMPI PUSH2 0x100 DUP1 DUP4 SLOAD DIV MUL DUP4 MSTORE SWAP2 PUSH1 0x20 ADD SWAP2 PUSH2 0x773 JUMP JUMPDEST DUP3 ADD SWAP2 SWAP1 PUSH1 0x0 MSTORE PUSH1 0x20 PUSH1 0x0 KECCAK256 SWAP1 JUMPDEST DUP2 SLOAD DUP2 MSTORE SWAP1 PUSH1 0x1 ADD SWAP1 PUSH1 0x20 ADD DUP1 DUP4 GT PUSH2 0x756 JUMPI DUP3 SWAP1 SUB PUSH1 0x1F AND DUP3 ADD SWAP2 JUMPDEST POP POP POP POP POP SWAP1 POP PUSH1 0x0 PUSH2 0x7AE PUSH1 0x40 DUP1 MLOAD DUP1 DUP3 ADD SWAP1 SWAP2 MSTORE PUSH1 0x15 DUP2 MSTORE PUSH21 0x68747470733A2F2F697066732E696F2F697066732F PUSH1 0x58 SHL PUSH1 0x20 DUP3 ADD MSTORE SWAP1 JUMP JUMPDEST SWAP1 POP DUP1 MLOAD PUSH1 0x0 EQ ISZERO PUSH2 0x7C1 JUMPI POP SWAP3 SWAP2 POP POP JUMP JUMPDEST DUP2 MLOAD ISZERO PUSH2 0x7F3 JUMPI DUP1 DUP3 PUSH1 0x40 MLOAD PUSH1 0x20 ADD PUSH2 0x7DB SWAP3 SWAP2 SWAP1 PUSH2 0x10C8 JUMP JUMPDEST PUSH1 0x40 MLOAD PUSH1 0x20 DUP2 DUP4 SUB SUB DUP2 MSTORE SWAP1 PUSH1 0x40 MSTORE SWAP3 POP POP POP SWAP2 SWAP1 POP JUMP JUMPDEST PUSH2 0x7FC DUP5 PUSH2 0x994 JUMP JUMPDEST SWAP5 SWAP4 POP POP POP POP JUMP JUMPDEST PUSH1 0x0 PUSH2 0x80F DUP3 PUSH2 0x935 JUMP JUMPDEST PUSH1 0x1 ADD SLOAD PUSH1 0x1 PUSH1 0xA0 SHL SWAP1 DIV PUSH1 0xFF AND SWAP3 SWAP2 POP POP JUMP JUMPDEST PUSH1 0x6 SLOAD PUSH2 0x832 DUP3 DUP3 PUSH1 0x1 PUSH2 0xA9D JUMP JUMPDEST PUSH1 0x40 DUP1 MLOAD PUSH1 0x1 PUSH1 0x1 PUSH1 0xA0 SHL SUB DUP5 AND DUP2 MSTORE PUSH1 0x20 DUP2 ADD DUP4 SWAP1 MSTORE PUSH32 0x30385C845B448A36257A6A1716E6AD2E1BC2CBE333CDE1E69FE849AD6511ADFE SWAP2 ADD PUSH1 0x40 MLOAD DUP1 SWAP2 SUB SWAP1 LOG1 PUSH1 0x1 PUSH1 0x6 PUSH1 0x0 DUP3 DUP3 SLOAD PUSH2 0x887 SWAP2 SWAP1 PUSH2 0x10F7 JUMP JUMPDEST SWAP1 SWAP2 SSTORE POP SWAP1 SWAP3 SWAP2 POP POP JUMP JUMPDEST PUSH1 0x0 DUP3 DUP2 MSTORE PUSH1 0x20 DUP2 SWAP1 MSTORE PUSH1 0x40 SWAP1 KECCAK256 PUSH1 0x1 ADD SLOAD PUSH1 0x1 PUSH1 0x1 PUSH1 0xA0 SHL SUB AND PUSH2 0x911 JUMPI PUSH1 0x40 MLOAD PUSH3 0x461BCD PUSH1 0xE5 SHL DUP2 MSTORE PUSH1 0x20 PUSH1 0x4 DUP3 ADD MSTORE PUSH1 0x2F PUSH1 0x24 DUP3 ADD MSTORE PUSH32 0x4552433436373155524953746F726167653A2055524920736574206F66206E6F PUSH1 0x44 DUP3 ADD MSTORE PUSH15 0x3732BC34B9BA32B73A103A37B5B2B7 PUSH1 0x89 SHL PUSH1 0x64 DUP3 ADD MSTORE PUSH1 0x84 ADD PUSH2 0x356 JUMP JUMPDEST PUSH1 0x0 DUP3 DUP2 MSTORE PUSH1 0x9 PUSH1 0x20 SWAP1 DUP2 MSTORE PUSH1 0x40 SWAP1 SWAP2 KECCAK256 DUP3 MLOAD PUSH2 0x930 SWAP3 DUP5 ADD SWAP1 PUSH2 0xD15 JUMP JUMPDEST POP POP POP JUMP JUMPDEST PUSH1 0x0 DUP2 DUP2 MSTORE PUSH1 0x20 DUP2 SWAP1 MSTORE PUSH1 0x40 DUP2 KECCAK256 PUSH1 0x1 DUP2 ADD SLOAD PUSH1 0x1 PUSH1 0x1 PUSH1 0xA0 SHL SUB AND PUSH2 0x326 JUMPI PUSH1 0x40 MLOAD PUSH3 0x461BCD PUSH1 0xE5 SHL DUP2 MSTORE PUSH1 0x20 PUSH1 0x4 DUP3 ADD MSTORE PUSH1 0x14 PUSH1 0x24 DUP3 ADD MSTORE PUSH20 0x151BDAD95B88191BD95CC81B9BDD08195E1A5CDD PUSH1 0x62 SHL PUSH1 0x44 DUP3 ADD MSTORE PUSH1 0x64 ADD PUSH2 0x356 JUMP JUMPDEST PUSH1 0x0 DUP2 DUP2 MSTORE PUSH1 0x20 DUP2 SWAP1 MSTORE PUSH1 0x40 SWAP1 KECCAK256 PUSH1 0x1 ADD SLOAD PUSH1 0x60 SWAP1 PUSH1 0x1 PUSH1 0x1 PUSH1 0xA0 SHL SUB AND PUSH2 0xA17 JUMPI PUSH1 0x40 MLOAD PUSH3 0x461BCD PUSH1 0xE5 SHL DUP2 MSTORE PUSH1 0x20 PUSH1 0x4 DUP3 ADD MSTORE PUSH1 0x30 PUSH1 0x24 DUP3 ADD MSTORE PUSH32 0x455243343637314D657461646174613A2055524920717565727920666F72206E PUSH1 0x44 DUP3 ADD MSTORE PUSH16 0x37B732BC34B9BA32B73A103A37B5B2B7 PUSH1 0x81 SHL PUSH1 0x64 DUP3 ADD MSTORE PUSH1 0x84 ADD PUSH2 0x356 JUMP JUMPDEST PUSH1 0x0 PUSH2 0xA4B PUSH1 0x40 DUP1 MLOAD DUP1 DUP3 ADD SWAP1 SWAP2 MSTORE PUSH1 0x15 DUP2 MSTORE PUSH21 0x68747470733A2F2F697066732E696F2F697066732F PUSH1 0x58 SHL PUSH1 0x20 DUP3 ADD MSTORE SWAP1 JUMP JUMPDEST SWAP1 POP PUSH1 0x0 DUP2 MLOAD GT PUSH2 0xA6B JUMPI PUSH1 0x40 MLOAD DUP1 PUSH1 0x20 ADD PUSH1 0x40 MSTORE DUP1 PUSH1 0x0 DUP2 MSTORE POP PUSH2 0xA96 JUMP JUMPDEST DUP1 PUSH2 0xA75 DUP5 PUSH2 0xC17 JUMP JUMPDEST PUSH1 0x40 MLOAD PUSH1 0x20 ADD PUSH2 0xA86 SWAP3 SWAP2 SWAP1 PUSH2 0x10C8 JUMP JUMPDEST PUSH1 0x40 MLOAD PUSH1 0x20 DUP2 DUP4 SUB SUB DUP2 MSTORE SWAP1 PUSH1 0x40 MSTORE JUMPDEST SWAP4 SWAP3 POP POP POP JUMP JUMPDEST PUSH1 0x0 DUP3 DUP2 MSTORE PUSH1 0x20 DUP2 SWAP1 MSTORE PUSH1 0x40 SWAP1 KECCAK256 PUSH1 0x1 ADD SLOAD PUSH1 0x1 PUSH1 0x1 PUSH1 0xA0 SHL SUB AND ISZERO PUSH2 0xB05 JUMPI PUSH1 0x40 MLOAD PUSH3 0x461BCD PUSH1 0xE5 SHL DUP2 MSTORE PUSH1 0x20 PUSH1 0x4 DUP3 ADD MSTORE PUSH1 0x1D PUSH1 0x24 DUP3 ADD MSTORE PUSH32 0x43616E6E6F74206D696E7420616E2061737369676E656420746F6B656E000000 PUSH1 0x44 DUP3 ADD MSTORE PUSH1 0x64 ADD PUSH2 0x356 JUMP JUMPDEST PUSH1 0x1 PUSH1 0x1 PUSH1 0xA0 SHL SUB DUP4 AND PUSH1 0x0 SWAP1 DUP2 MSTORE PUSH1 0x1 PUSH1 0x20 MSTORE PUSH1 0x40 SWAP1 KECCAK256 SLOAD PUSH2 0xB3B JUMPI PUSH1 0x1 PUSH1 0x7 PUSH1 0x0 DUP3 DUP3 SLOAD PUSH2 0xB35 SWAP2 SWAP1 PUSH2 0x10F7 JUMP JUMPDEST SWAP1 SWAP2 SSTORE POP POP JUMPDEST PUSH1 0x40 DUP1 MLOAD PUSH1 0x60 DUP2 ADD DUP3 MSTORE CALLER DUP2 MSTORE PUSH1 0x1 PUSH1 0x1 PUSH1 0xA0 SHL SUB DUP6 DUP2 AND PUSH1 0x20 DUP1 DUP5 ADD DUP3 DUP2 MSTORE DUP7 ISZERO DUP1 ISZERO DUP7 DUP9 ADD SWAP1 DUP2 MSTORE PUSH1 0x0 DUP11 DUP2 MSTORE DUP1 DUP6 MSTORE DUP9 DUP2 KECCAK256 SWAP8 MLOAD DUP9 SLOAD SWAP1 DUP9 AND PUSH1 0x1 PUSH1 0x1 PUSH1 0xA0 SHL SUB NOT SWAP1 SWAP2 AND OR DUP9 SSTORE SWAP3 MLOAD PUSH1 0x1 SWAP8 DUP9 ADD DUP1 SLOAD SWAP3 MLOAD ISZERO ISZERO PUSH1 0x1 PUSH1 0xA0 SHL MUL PUSH1 0x1 PUSH1 0x1 PUSH1 0xA8 SHL SUB NOT SWAP1 SWAP4 AND SWAP2 SWAP1 SWAP8 AND OR OR SWAP1 SWAP5 SSTORE SWAP2 DUP3 MSTORE DUP4 DUP2 MSTORE DUP5 DUP3 KECCAK256 DUP1 SLOAD PUSH1 0x2 DUP4 MSTORE DUP7 DUP5 KECCAK256 DUP10 DUP6 MSTORE DUP4 MSTORE SWAP6 DUP4 KECCAK256 DUP7 SWAP1 SSTORE DUP5 DUP3 MSTORE SWAP4 DUP6 ADD DUP5 SSTORE SWAP3 DUP2 MSTORE SWAP2 SWAP1 SWAP2 KECCAK256 SWAP1 SWAP2 ADD DUP4 SWAP1 SSTORE PUSH2 0x930 JUMPI PUSH1 0x1 PUSH1 0x1 PUSH1 0xA0 SHL SUB DUP4 AND PUSH1 0x0 SWAP1 DUP2 MSTORE PUSH1 0x3 PUSH1 0x20 MSTORE PUSH1 0x40 DUP2 KECCAK256 DUP1 SLOAD PUSH1 0x1 SWAP3 SWAP1 PUSH2 0xC0D SWAP1 DUP5 SWAP1 PUSH2 0x10F7 JUMP JUMPDEST SWAP1 SWAP2 SSTORE POP POP POP POP POP JUMP JUMPDEST PUSH1 0x60 DUP2 PUSH2 0xC3B JUMPI POP POP PUSH1 0x40 DUP1 MLOAD DUP1 DUP3 ADD SWAP1 SWAP2 MSTORE PUSH1 0x1 DUP2 MSTORE PUSH1 0x3 PUSH1 0xFC SHL PUSH1 0x20 DUP3 ADD MSTORE SWAP1 JUMP JUMPDEST DUP2 PUSH1 0x0 JUMPDEST DUP2 ISZERO PUSH2 0xC65 JUMPI DUP1 PUSH2 0xC4F DUP2 PUSH2 0x110F JUMP JUMPDEST SWAP2 POP PUSH2 0xC5E SWAP1 POP PUSH1 0xA DUP4 PUSH2 0x1140 JUMP JUMPDEST SWAP2 POP PUSH2 0xC3F JUMP JUMPDEST PUSH1 0x0 DUP2 PUSH8 0xFFFFFFFFFFFFFFFF DUP2 GT ISZERO PUSH2 0xC80 JUMPI PUSH2 0xC80 PUSH2 0xDF4 JUMP JUMPDEST PUSH1 0x40 MLOAD SWAP1 DUP1 DUP3 MSTORE DUP1 PUSH1 0x1F ADD PUSH1 0x1F NOT AND PUSH1 0x20 ADD DUP3 ADD PUSH1 0x40 MSTORE DUP1 ISZERO PUSH2 0xCAA JUMPI PUSH1 0x20 DUP3 ADD DUP2 DUP1 CALLDATASIZE DUP4 CALLDATACOPY ADD SWAP1 POP JUMPDEST POP SWAP1 POP JUMPDEST DUP5 ISZERO PUSH2 0x7FC JUMPI PUSH2 0xCBF PUSH1 0x1 DUP4 PUSH2 0x1030 JUMP JUMPDEST SWAP2 POP PUSH2 0xCCC PUSH1 0xA DUP7 PUSH2 0x1154 JUMP JUMPDEST PUSH2 0xCD7 SWAP1 PUSH1 0x30 PUSH2 0x10F7 JUMP JUMPDEST PUSH1 0xF8 SHL DUP2 DUP4 DUP2 MLOAD DUP2 LT PUSH2 0xCEC JUMPI PUSH2 0xCEC PUSH2 0x1082 JUMP JUMPDEST PUSH1 0x20 ADD ADD SWAP1 PUSH1 0x1 PUSH1 0x1 PUSH1 0xF8 SHL SUB NOT AND SWAP1 DUP2 PUSH1 0x0 BYTE SWAP1 MSTORE8 POP PUSH2 0xD0E PUSH1 0xA DUP7 PUSH2 0x1140 JUMP JUMPDEST SWAP5 POP PUSH2 0xCAE JUMP JUMPDEST DUP3 DUP1 SLOAD PUSH2 0xD21 SWAP1 PUSH2 0x1047 JUMP JUMPDEST SWAP1 PUSH1 0x0 MSTORE PUSH1 0x20 PUSH1 0x0 KECCAK256 SWAP1 PUSH1 0x1F ADD PUSH1 0x20 SWAP1 DIV DUP2 ADD SWAP3 DUP3 PUSH2 0xD43 JUMPI PUSH1 0x0 DUP6 SSTORE PUSH2 0xD89 JUMP JUMPDEST DUP3 PUSH1 0x1F LT PUSH2 0xD5C JUMPI DUP1 MLOAD PUSH1 0xFF NOT AND DUP4 DUP1 ADD OR DUP6 SSTORE PUSH2 0xD89 JUMP JUMPDEST DUP3 DUP1 ADD PUSH1 0x1 ADD DUP6 SSTORE DUP3 ISZERO PUSH2 0xD89 JUMPI SWAP2 DUP3 ADD JUMPDEST DUP3 DUP2 GT ISZERO PUSH2 0xD89 JUMPI DUP3 MLOAD DUP3 SSTORE SWAP2 PUSH1 0x20 ADD SWAP2 SWAP1 PUSH1 0x1 ADD SWAP1 PUSH2 0xD6E JUMP JUMPDEST POP PUSH2 0xD95 SWAP3 SWAP2 POP PUSH2 0xD99 JUMP JUMPDEST POP SWAP1 JUMP JUMPDEST JUMPDEST DUP1 DUP3 GT ISZERO PUSH2 0xD95 JUMPI PUSH1 0x0 DUP2 SSTORE PUSH1 0x1 ADD PUSH2 0xD9A JUMP JUMPDEST PUSH1 0x0 PUSH1 0x20 DUP3 DUP5 SUB SLT ISZERO PUSH2 0xDC0 JUMPI PUSH1 0x0 DUP1 REVERT JUMPDEST DUP2 CALLDATALOAD PUSH1 0x1 PUSH1 0x1 PUSH1 0xE0 SHL SUB NOT DUP2 AND DUP2 EQ PUSH2 0xA96 JUMPI PUSH1 0x0 DUP1 REVERT JUMPDEST DUP1 CALLDATALOAD PUSH1 0x1 PUSH1 0x1 PUSH1 0xA0 SHL SUB DUP2 AND DUP2 EQ PUSH2 0xDEF JUMPI PUSH1 0x0 DUP1 REVERT JUMPDEST SWAP2 SWAP1 POP JUMP JUMPDEST PUSH4 0x4E487B71 PUSH1 0xE0 SHL PUSH1 0x0 MSTORE PUSH1 0x41 PUSH1 0x4 MSTORE PUSH1 0x24 PUSH1 0x0 REVERT JUMPDEST PUSH1 0x0 DUP3 PUSH1 0x1F DUP4 ADD SLT PUSH2 0xE1B JUMPI PUSH1 0x0 DUP1 REVERT JUMPDEST DUP2 CALLDATALOAD PUSH8 0xFFFFFFFFFFFFFFFF DUP1 DUP3 GT ISZERO PUSH2 0xE36 JUMPI PUSH2 0xE36 PUSH2 0xDF4 JUMP JUMPDEST PUSH1 0x40 MLOAD PUSH1 0x1F DUP4 ADD PUSH1 0x1F NOT SWAP1 DUP2 AND PUSH1 0x3F ADD AND DUP2 ADD SWAP1 DUP3 DUP3 GT DUP2 DUP4 LT OR ISZERO PUSH2 0xE5E JUMPI PUSH2 0xE5E PUSH2 0xDF4 JUMP JUMPDEST DUP2 PUSH1 0x40 MSTORE DUP4 DUP2 MSTORE DUP7 PUSH1 0x20 DUP6 DUP9 ADD ADD GT ISZERO PUSH2 0xE77 JUMPI PUSH1 0x0 DUP1 REVERT JUMPDEST DUP4 PUSH1 0x20 DUP8 ADD PUSH1 0x20 DUP4 ADD CALLDATACOPY PUSH1 0x0 PUSH1 0x20 DUP6 DUP4 ADD ADD MSTORE DUP1 SWAP5 POP POP POP POP POP SWAP3 SWAP2 POP POP JUMP JUMPDEST PUSH1 0x0 DUP1 PUSH1 0x40 DUP4 DUP6 SUB SLT ISZERO PUSH2 0xEAA JUMPI PUSH1 0x0 DUP1 REVERT JUMPDEST PUSH2 0xEB3 DUP4 PUSH2 0xDD8 JUMP JUMPDEST SWAP2 POP PUSH1 0x20 DUP4 ADD CALLDATALOAD PUSH8 0xFFFFFFFFFFFFFFFF DUP2 GT ISZERO PUSH2 0xECF JUMPI PUSH1 0x0 DUP1 REVERT JUMPDEST PUSH2 0xEDB DUP6 DUP3 DUP7 ADD PUSH2 0xE0A JUMP JUMPDEST SWAP2 POP POP SWAP3 POP SWAP3 SWAP1 POP JUMP JUMPDEST PUSH1 0x0 JUMPDEST DUP4 DUP2 LT ISZERO PUSH2 0xF00 JUMPI DUP2 DUP2 ADD MLOAD DUP4 DUP3 ADD MSTORE PUSH1 0x20 ADD PUSH2 0xEE8 JUMP JUMPDEST DUP4 DUP2 GT ISZERO PUSH2 0xF0F JUMPI PUSH1 0x0 DUP5 DUP5 ADD MSTORE JUMPDEST POP POP POP POP JUMP JUMPDEST PUSH1 0x0 DUP2 MLOAD DUP1 DUP5 MSTORE PUSH2 0xF2D DUP2 PUSH1 0x20 DUP7 ADD PUSH1 0x20 DUP7 ADD PUSH2 0xEE5 JUMP JUMPDEST PUSH1 0x1F ADD PUSH1 0x1F NOT AND SWAP3 SWAP1 SWAP3 ADD PUSH1 0x20 ADD SWAP3 SWAP2 POP POP JUMP JUMPDEST PUSH1 0x20 DUP2 MSTORE PUSH1 0x0 PUSH2 0xA96 PUSH1 0x20 DUP4 ADD DUP5 PUSH2 0xF15 JUMP JUMPDEST PUSH1 0x0 PUSH1 0x20 DUP3 DUP5 SUB SLT ISZERO PUSH2 0xF66 JUMPI PUSH1 0x0 DUP1 REVERT JUMPDEST PUSH2 0xA96 DUP3 PUSH2 0xDD8 JUMP JUMPDEST PUSH1 0x0 DUP1 PUSH1 0x40 DUP4 DUP6 SUB SLT ISZERO PUSH2 0xF82 JUMPI PUSH1 0x0 DUP1 REVERT JUMPDEST PUSH2 0xF8B DUP4 PUSH2 0xDD8 JUMP JUMPDEST SWAP5 PUSH1 0x20 SWAP4 SWAP1 SWAP4 ADD CALLDATALOAD SWAP4 POP POP POP JUMP JUMPDEST PUSH1 0x0 PUSH1 0x20 DUP3 DUP5 SUB SLT ISZERO PUSH2 0xFAB JUMPI PUSH1 0x0 DUP1 REVERT JUMPDEST POP CALLDATALOAD SWAP2 SWAP1 POP JUMP JUMPDEST PUSH1 0x0 DUP1 PUSH1 0x40 DUP4 DUP6 SUB SLT ISZERO PUSH2 0xFC5 JUMPI PUSH1 0x0 DUP1 REVERT JUMPDEST DUP3 CALLDATALOAD SWAP2 POP PUSH1 0x20 DUP4 ADD CALLDATALOAD PUSH8 0xFFFFFFFFFFFFFFFF DUP2 GT ISZERO PUSH2 0xECF JUMPI PUSH1 0x0 DUP1 REVERT JUMPDEST PUSH1 0x20 DUP1 DUP3 MSTORE PUSH1 0x1E SWAP1 DUP3 ADD MSTORE PUSH32 0x596F75206D7573742062652074686520636F6E7472616374206F776E65720000 PUSH1 0x40 DUP3 ADD MSTORE PUSH1 0x60 ADD SWAP1 JUMP JUMPDEST PUSH4 0x4E487B71 PUSH1 0xE0 SHL PUSH1 0x0 MSTORE PUSH1 0x11 PUSH1 0x4 MSTORE PUSH1 0x24 PUSH1 0x0 REVERT JUMPDEST PUSH1 0x0 DUP3 DUP3 LT ISZERO PUSH2 0x1042 JUMPI PUSH2 0x1042 PUSH2 0x101A JUMP JUMPDEST POP SUB SWAP1 JUMP JUMPDEST PUSH1 0x1 DUP2 DUP2 SHR SWAP1 DUP3 AND DUP1 PUSH2 0x105B JUMPI PUSH1 0x7F DUP3 AND SWAP2 POP JUMPDEST PUSH1 0x20 DUP3 LT DUP2 EQ ISZERO PUSH2 0x107C JUMPI PUSH4 0x4E487B71 PUSH1 0xE0 SHL PUSH1 0x0 MSTORE PUSH1 0x22 PUSH1 0x4 MSTORE PUSH1 0x24 PUSH1 0x0 REVERT JUMPDEST POP SWAP2 SWAP1 POP JUMP JUMPDEST PUSH4 0x4E487B71 PUSH1 0xE0 SHL PUSH1 0x0 MSTORE PUSH1 0x32 PUSH1 0x4 MSTORE PUSH1 0x24 PUSH1 0x0 REVERT JUMPDEST PUSH1 0x1 DUP1 PUSH1 0xA0 SHL SUB DUP5 AND DUP2 MSTORE DUP3 PUSH1 0x20 DUP3 ADD MSTORE PUSH1 0x60 PUSH1 0x40 DUP3 ADD MSTORE PUSH1 0x0 PUSH2 0x10BF PUSH1 0x60 DUP4 ADD DUP5 PUSH2 0xF15 JUMP JUMPDEST SWAP6 SWAP5 POP POP POP POP POP JUMP JUMPDEST PUSH1 0x0 DUP4 MLOAD PUSH2 0x10DA DUP2 DUP5 PUSH1 0x20 DUP9 ADD PUSH2 0xEE5 JUMP JUMPDEST DUP4 MLOAD SWAP1 DUP4 ADD SWAP1 PUSH2 0x10EE DUP2 DUP4 PUSH1 0x20 DUP9 ADD PUSH2 0xEE5 JUMP JUMPDEST ADD SWAP5 SWAP4 POP POP POP POP JUMP JUMPDEST PUSH1 0x0 DUP3 NOT DUP3 GT ISZERO PUSH2 0x110A JUMPI PUSH2 0x110A PUSH2 0x101A JUMP JUMPDEST POP ADD SWAP1 JUMP JUMPDEST PUSH1 0x0 PUSH1 0x0 NOT DUP3 EQ ISZERO PUSH2 0x1123 JUMPI PUSH2 0x1123 PUSH2 0x101A JUMP JUMPDEST POP PUSH1 0x1 ADD SWAP1 JUMP JUMPDEST PUSH4 0x4E487B71 PUSH1 0xE0 SHL PUSH1 0x0 MSTORE PUSH1 0x12 PUSH1 0x4 MSTORE PUSH1 0x24 PUSH1 0x0 REVERT JUMPDEST PUSH1 0x0 DUP3 PUSH2 0x114F JUMPI PUSH2 0x114F PUSH2 0x112A JUMP JUMPDEST POP DIV SWAP1 JUMP JUMPDEST PUSH1 0x0 DUP3 PUSH2 0x1163 JUMPI PUSH2 0x1163 PUSH2 0x112A JUMP JUMPDEST POP MOD SWAP1 JUMP INVALID LOG2 PUSH5 0x6970667358 0x22 SLT KECCAK256 0x29 ORIGIN DUP1 ADDMOD 0xAE XOR 0xF EXP 0xDA PUSH7 0x90ADF8E37365FE 0xE9 0xB4 SWAP11 0x1E 0xBA 0xD4 PUSH24 0x660F984AA740F7E764736F6C634300080B00330000000000 ",
  "sha1": "edb861be3d3c054849f25ce11ef2268674431a50",
  "source": "//SPDX-License-Identifier: MIT\n\npragma solidity ^0.8.0;\n\nimport \"./ERC4671.sol\";\nimport \"./ERC4671URIStorage.sol\";\n\ncontract Course is ERC4671URIStorage {\n    mapping(address => uint256) public OwnerToId;\n\n    // Events\n    event newCertificateCreated(address owner, uint256 id);\n    event newTokenUriSet(address owner, uint256 id, string uri);\n\n    address owner;\n\n    constructor(\n        string memory _courseName,\n        string memory _tokenName,\n        address _owner\n    ) ERC4671(_courseName, _tokenName) {\n        owner = _owner;\n    }\n\n    // This function creates a new Certificate and relates the owner\n    // address which the corresponding id\n    // Also uses the setTokenURI to set up the IPFS token URI to the ERC-4671\n\n    function createCertificate(address ownerOfCertificate) public {\n        require(owner == msg.sender, \"You must be the contract owner\");\n        _mint(ownerOfCertificate);\n        OwnerToId[ownerOfCertificate] = emittedCount();\n        emit newCertificateCreated(ownerOfCertificate, OwnerToId[owner]);\n    }\n\n    function createTokenURI(uint256 _tokenId, string memory _tokenURI) public {\n        require(owner == msg.sender, \"You must be the contract owner\");\n        _setTokenURI(_tokenId, _tokenURI);\n        emit newTokenUriSet(\n            getOwnerBasedOnIndex(_tokenId),\n            _tokenId,\n            _tokenURI\n        );\n    }\n\n    function createCertificateAndSetToken(\n        address _ownerOfCertificate,\n        string memory _tokenURI\n    ) public {\n        require(owner == msg.sender, \"You must be the contract owner\");\n        _mint(_ownerOfCertificate);\n        OwnerToId[_ownerOfCertificate] = emittedCount() - 1;\n        _setTokenURI(OwnerToId[_ownerOfCertificate], _tokenURI);\n        emit newCertificateCreated(\n            _ownerOfCertificate,\n            OwnerToId[_ownerOfCertificate]\n        );\n    }\n\n    function _baseURI() internal pure override returns (string memory) {\n        return \"https://ipfs.io/ipfs/\";\n    }\n}\n",
  "sourcePath": "contracts/Course.sol",
  "type": "contract"
}