{
  "abi": [
    {
      "inputs": [
        {
          "internalType": "string",
          "name": "_courseName",
          "type": "string"
        },
        {
          "internalType": "string",
          "name": "_tokenName",
          "type": "string"
        },
        {
          "internalType": "address",
          "name": "_owner",
          "type": "address"
        },
        {
          "internalType": "address",
          "name": "_vrfCoordinator",
          "type": "address"
        },
        {
          "internalType": "address",
          "name": "_linkToken",
          "type": "address"
        },
        {
          "internalType": "uint256",
          "name": "_fee",
          "type": "uint256"
        },
        {
          "internalType": "bytes32",
          "name": "_keyhash",
          "type": "bytes32"
        }
      ],
      "stateMutability": "nonpayable",
      "type": "constructor"
    },
    {
      "anonymous": false,
      "inputs": [
        {
          "indexed": false,
          "internalType": "address",
          "name": "owner",
          "type": "address"
        },
        {
          "indexed": false,
          "internalType": "uint256",
          "name": "tokenId",
          "type": "uint256"
        }
      ],
      "name": "Minted",
      "type": "event"
    },
    {
      "anonymous": false,
      "inputs": [
        {
          "indexed": false,
          "internalType": "bytes32",
          "name": "requestId",
          "type": "bytes32"
        }
      ],
      "name": "RequestedRandomness",
      "type": "event"
    },
    {
      "anonymous": false,
      "inputs": [
        {
          "indexed": false,
          "internalType": "address",
          "name": "owner",
          "type": "address"
        },
        {
          "indexed": false,
          "internalType": "uint256",
          "name": "tokenId",
          "type": "uint256"
        }
      ],
      "name": "Revoked",
      "type": "event"
    },
    {
      "anonymous": false,
      "inputs": [
        {
          "indexed": false,
          "internalType": "address",
          "name": "owner",
          "type": "address"
        },
        {
          "indexed": false,
          "internalType": "uint256",
          "name": "id",
          "type": "uint256"
        }
      ],
      "name": "newCertificateCreated",
      "type": "event"
    },
    {
      "anonymous": false,
      "inputs": [
        {
          "indexed": false,
          "internalType": "uint256",
          "name": "tokenId",
          "type": "uint256"
        }
      ],
      "name": "newRandomnessSetup",
      "type": "event"
    },
    {
      "anonymous": false,
      "inputs": [
        {
          "indexed": false,
          "internalType": "address",
          "name": "owner",
          "type": "address"
        },
        {
          "indexed": false,
          "internalType": "uint256",
          "name": "id",
          "type": "uint256"
        },
        {
          "indexed": false,
          "internalType": "string",
          "name": "uri",
          "type": "string"
        }
      ],
      "name": "newTokenUriSet",
      "type": "event"
    },
    {
      "inputs": [
        {
          "internalType": "address",
          "name": "",
          "type": "address"
        }
      ],
      "name": "OwnerToId",
      "outputs": [
        {
          "internalType": "uint256",
          "name": "",
          "type": "uint256"
        }
      ],
      "stateMutability": "view",
      "type": "function"
    },
    {
      "inputs": [
        {
          "internalType": "address",
          "name": "owner",
          "type": "address"
        }
      ],
      "name": "balanceOf",
      "outputs": [
        {
          "internalType": "uint256",
          "name": "",
          "type": "uint256"
        }
      ],
      "stateMutability": "view",
      "type": "function"
    },
    {
      "inputs": [
        {
          "internalType": "address",
          "name": "ownerOfCertificate",
          "type": "address"
        }
      ],
      "name": "createCertificate",
      "outputs": [],
      "stateMutability": "nonpayable",
      "type": "function"
    },
    {
      "inputs": [
        {
          "internalType": "address",
          "name": "_ownerOfCertificate",
          "type": "address"
        },
        {
          "internalType": "string",
          "name": "_tokenURI",
          "type": "string"
        }
      ],
      "name": "createCertificateAndSetToken",
      "outputs": [],
      "stateMutability": "nonpayable",
      "type": "function"
    },
    {
      "inputs": [
        {
          "internalType": "uint256",
          "name": "_tokenId",
          "type": "uint256"
        },
        {
          "internalType": "string",
          "name": "_tokenURI",
          "type": "string"
        }
      ],
      "name": "createTokenURI",
      "outputs": [],
      "stateMutability": "nonpayable",
      "type": "function"
    },
    {
      "inputs": [],
      "name": "emittedCount",
      "outputs": [
        {
          "internalType": "uint256",
          "name": "",
          "type": "uint256"
        }
      ],
      "stateMutability": "view",
      "type": "function"
    },
    {
      "inputs": [],
      "name": "fee",
      "outputs": [
        {
          "internalType": "uint256",
          "name": "",
          "type": "uint256"
        }
      ],
      "stateMutability": "view",
      "type": "function"
    },
    {
      "inputs": [
        {
          "internalType": "uint256",
          "name": "tokenId",
          "type": "uint256"
        }
      ],
      "name": "getOwnerBasedOnIndex",
      "outputs": [
        {
          "internalType": "address",
          "name": "",
          "type": "address"
        }
      ],
      "stateMutability": "view",
      "type": "function"
    },
    {
      "inputs": [
        {
          "internalType": "uint256",
          "name": "_indexOfToken",
          "type": "uint256"
        }
      ],
      "name": "getRandomnessBasedOnId",
      "outputs": [
        {
          "internalType": "uint256",
          "name": "",
          "type": "uint256"
        }
      ],
      "stateMutability": "view",
      "type": "function"
    },
    {
      "inputs": [
        {
          "internalType": "address",
          "name": "owner",
          "type": "address"
        }
      ],
      "name": "hasValid",
      "outputs": [
        {
          "internalType": "bool",
          "name": "",
          "type": "bool"
        }
      ],
      "stateMutability": "view",
      "type": "function"
    },
    {
      "inputs": [],
      "name": "holdersCount",
      "outputs": [
        {
          "internalType": "uint256",
          "name": "",
          "type": "uint256"
        }
      ],
      "stateMutability": "view",
      "type": "function"
    },
    {
      "inputs": [
        {
          "internalType": "uint256",
          "name": "tokenId",
          "type": "uint256"
        }
      ],
      "name": "isValid",
      "outputs": [
        {
          "internalType": "bool",
          "name": "",
          "type": "bool"
        }
      ],
      "stateMutability": "view",
      "type": "function"
    },
    {
      "inputs": [],
      "name": "keyhash",
      "outputs": [
        {
          "internalType": "bytes32",
          "name": "",
          "type": "bytes32"
        }
      ],
      "stateMutability": "view",
      "type": "function"
    },
    {
      "inputs": [],
      "name": "name",
      "outputs": [
        {
          "internalType": "string",
          "name": "",
          "type": "string"
        }
      ],
      "stateMutability": "view",
      "type": "function"
    },
    {
      "inputs": [],
      "name": "owner",
      "outputs": [
        {
          "internalType": "address",
          "name": "",
          "type": "address"
        }
      ],
      "stateMutability": "view",
      "type": "function"
    },
    {
      "inputs": [
        {
          "internalType": "uint256",
          "name": "tokenId",
          "type": "uint256"
        }
      ],
      "name": "ownerOf",
      "outputs": [
        {
          "internalType": "address",
          "name": "",
          "type": "address"
        }
      ],
      "stateMutability": "view",
      "type": "function"
    },
    {
      "inputs": [
        {
          "internalType": "uint256",
          "name": "",
          "type": "uint256"
        }
      ],
      "name": "randomnessToId",
      "outputs": [
        {
          "internalType": "uint256",
          "name": "",
          "type": "uint256"
        }
      ],
      "stateMutability": "view",
      "type": "function"
    },
    {
      "inputs": [
        {
          "internalType": "bytes32",
          "name": "requestId",
          "type": "bytes32"
        },
        {
          "internalType": "uint256",
          "name": "randomness",
          "type": "uint256"
        }
      ],
      "name": "rawFulfillRandomness",
      "outputs": [],
      "stateMutability": "nonpayable",
      "type": "function"
    },
    {
      "inputs": [
        {
          "internalType": "bytes4",
          "name": "interfaceId",
          "type": "bytes4"
        }
      ],
      "name": "supportsInterface",
      "outputs": [
        {
          "internalType": "bool",
          "name": "",
          "type": "bool"
        }
      ],
      "stateMutability": "view",
      "type": "function"
    },
    {
      "inputs": [],
      "name": "symbol",
      "outputs": [
        {
          "internalType": "string",
          "name": "",
          "type": "string"
        }
      ],
      "stateMutability": "view",
      "type": "function"
    },
    {
      "inputs": [
        {
          "internalType": "uint256",
          "name": "index",
          "type": "uint256"
        }
      ],
      "name": "tokenByIndex",
      "outputs": [
        {
          "internalType": "uint256",
          "name": "",
          "type": "uint256"
        }
      ],
      "stateMutability": "view",
      "type": "function"
    },
    {
      "inputs": [
        {
          "internalType": "address",
          "name": "owner",
          "type": "address"
        },
        {
          "internalType": "uint256",
          "name": "index",
          "type": "uint256"
        }
      ],
      "name": "tokenOfOwnerByIndex",
      "outputs": [
        {
          "internalType": "uint256",
          "name": "",
          "type": "uint256"
        }
      ],
      "stateMutability": "view",
      "type": "function"
    },
    {
      "inputs": [
        {
          "internalType": "uint256",
          "name": "tokenId",
          "type": "uint256"
        }
      ],
      "name": "tokenURI",
      "outputs": [
        {
          "internalType": "string",
          "name": "",
          "type": "string"
        }
      ],
      "stateMutability": "view",
      "type": "function"
    }
  ],
  "bytecode": "60c06040523480156200001157600080fd5b506040516200192338038062001923833981016040819052620000349162000244565b83838888816004908051906020019062000050929190620000b4565b50805162000066906005906020840190620000b4565b5050600880546001600160a01b031990811633179091556001600160a01b0393841660a05291831660805250600c805497909216961695909517909455600e555050600f5550620003369050565b828054620000c290620002f9565b90600052602060002090601f016020900481019282620000e6576000855562000131565b82601f106200010157805160ff191683800117855562000131565b8280016001018555821562000131579182015b828111156200013157825182559160200191906001019062000114565b506200013f92915062000143565b5090565b5b808211156200013f576000815560010162000144565b634e487b7160e01b600052604160045260246000fd5b600082601f8301126200018257600080fd5b81516001600160401b03808211156200019f576200019f6200015a565b604051601f8301601f19908116603f01168101908282118183101715620001ca57620001ca6200015a565b81604052838152602092508683858801011115620001e757600080fd5b600091505b838210156200020b5785820183015181830184015290820190620001ec565b838211156200021d5760008385830101525b9695505050505050565b80516001600160a01b03811681146200023f57600080fd5b919050565b600080600080600080600060e0888a0312156200026057600080fd5b87516001600160401b03808211156200027857600080fd5b620002868b838c0162000170565b985060208a01519150808211156200029d57600080fd5b50620002ac8a828b0162000170565b965050620002bd6040890162000227565b9450620002cd6060890162000227565b9350620002dd6080890162000227565b925060a0880151915060c0880151905092959891949750929550565b600181811c908216806200030e57607f821691505b602082108114156200033057634e487b7160e01b600052602260045260246000fd5b50919050565b60805160a0516115c062000363600039600081816107cf0152610b4801526000610b1901526115c06000f3fe608060405234801561001057600080fd5b506004361061014d5760003560e01c806370a08231116100c357806395d89b411161007c57806395d89b41146102f6578063c87b56dd146102fe578063ddca3f4314610311578063f577a5001461031a578063faf186491461032d578063fb157f591461034d57600080fd5b806370a082311461025457806371759af91461027d5780637a83ca841461029d5780638da5cb5b146102bd57806391b669ad146102d057806394985ddd146102e357600080fd5b80632f745c59116101155780632f745c59146101c957806343945512146101dc5780634f6ccce7146102075780636352211e1461021857806369ebe78e146102435780636b4ed21b1461024c57600080fd5b806301ffc9a71461015257806302d64bf11461017a57806306fdde031461018f57806326019c18146101a457806329027aec146101b6575b600080fd5b61016561016036600461118c565b610379565b60405190151581526020015b60405180910390f35b61018d610188366004611275565b6103e6565b005b610197610513565b604051610171919061131f565b6006545b604051908152602001610171565b61018d6101c4366004611332565b6105a5565b6101a86101d736600461134d565b61069f565b6101656101ea366004611332565b6001600160a01b0316600090815260036020526040902054151590565b6101a8610215366004611377565b90565b61022b610226366004611377565b610724565b6040516001600160a01b039091168152602001610171565b6101a8600f5481565b6007546101a8565b6101a8610262366004611332565b6001600160a01b031660009081526001602052604090205490565b6101a861028b366004611377565b60106020526000908152604090205481565b6101a86102ab366004611332565b600b6020526000908152604090205481565b600c5461022b906001600160a01b031681565b61018d6102de366004611390565b610742565b61018d6102f13660046113c1565b6107c4565b61019761084a565b61019761030c366004611377565b610859565b6101a8600e5481565b610165610328366004611377565b6109e4565b6101a861033b366004611377565b60009081526010602052604090205490565b61022b61035b366004611377565b6000908152602081905260409020600101546001600160a01b031690565b60006001600160e01b0319821663a511533d60e01b14806103aa57506001600160e01b03198216635b5e139f60e01b145b806103c557506001600160e01b03198216632d57debd60e01b145b806103e057506301ffc9a760e01b6001600160e01b03198316145b92915050565b600c546001600160a01b031633146104195760405162461bcd60e51b8152600401610410906113e3565b60405180910390fd5b61042282610a03565b50600161042e60065490565b6104389190611430565b6001600160a01b0383166000818152600b60205260409020918255600d80546001600160a01b0319169091179055546104719082610a72565b6000610481600f54600e54610b15565b90507fe5f5b44d72d4143c278eb745c4acc0695c4a5bc616be5beecf46abe29661780e816040516104b491815260200190565b60405180910390a16001600160a01b0383166000818152600b6020908152604091829020548251938452908301527fc0fec69a370eeb4b030c24750d3565c38f525239af926c03f0baba1503d965a091015b60405180910390a1505050565b60606004805461052290611447565b80601f016020809104026020016040519081016040528092919081815260200182805461054e90611447565b801561059b5780601f106105705761010080835404028352916020019161059b565b820191906000526020600020905b81548152906001019060200180831161057e57829003601f168201915b5050505050905090565b600c546001600160a01b031633146105cf5760405162461bcd60e51b8152600401610410906113e3565b6105d881610a03565b506006546001600160a01b0382166000908152600b6020526040812091909155600f54600e546106089190610b15565b90507fe5f5b44d72d4143c278eb745c4acc0695c4a5bc616be5beecf46abe29661780e8160405161063b91815260200190565b60405180910390a1600c546001600160a01b039081166000908152600b60209081526040918290205482519386168452908301527fc0fec69a370eeb4b030c24750d3565c38f525239af926c03f0baba1503d965a091015b60405180910390a15050565b6001600160a01b0382166000908152600160205260408120805483106106fe5760405162461bcd60e51b8152602060048201526014602482015273151bdad95b88191bd95cc81b9bdd08195e1a5cdd60621b6044820152606401610410565b80838154811061071057610710611482565b906000526020600020015491505092915050565b600061072f82610c91565b600101546001600160a01b031692915050565b600c546001600160a01b0316331461076c5760405162461bcd60e51b8152600401610410906113e3565b6107768282610a72565b6000828152602081905260409020600101547ffbfa2e72e1ab1e10a8b9e46851482d1c25490c68fc5a42952c3769e53a2aedd0906001600160a01b0316838360405161069393929190611498565b336001600160a01b037f0000000000000000000000000000000000000000000000000000000000000000161461083c5760405162461bcd60e51b815260206004820152601f60248201527f4f6e6c7920565246436f6f7264696e61746f722063616e2066756c66696c6c006044820152606401610410565b6108468282610cf0565b5050565b60606005805461052290611447565b6000818152602081905260409020600101546060906001600160a01b03166108de5760405162461bcd60e51b815260206004820152603260248201527f4552433436373155524953746f726167653a2055524920717565727920666f72604482015271103737b732bc34b9ba32b73a103a37b5b2b760711b6064820152608401610410565b600082815260096020526040812080546108f790611447565b80601f016020809104026020016040519081016040528092919081815260200182805461092390611447565b80156109705780601f1061094557610100808354040283529160200191610970565b820191906000526020600020905b81548152906001019060200180831161095357829003601f168201915b50505050509050600061098e60408051602081019091526000815290565b90508051600014156109a1575092915050565b8151156109d35780826040516020016109bb9291906114c8565b60405160208183030381529060405292505050919050565b6109dc84610d8f565b949350505050565b60006109ef82610c91565b60010154600160a01b900460ff1692915050565b600654610a1282826001610e7b565b604080516001600160a01b0384168152602081018390527f30385c845b448a36257a6a1716e6ad2e1bc2cbe333cde1e69fe849ad6511adfe910160405180910390a1600160066000828254610a6791906114f7565b909155509092915050565b6000828152602081905260409020600101546001600160a01b0316610af15760405162461bcd60e51b815260206004820152602f60248201527f4552433436373155524953746f726167653a2055524920736574206f66206e6f60448201526e3732bc34b9ba32b73a103a37b5b2b760891b6064820152608401610410565b60008281526009602090815260409091208251610b10928401906110f3565b505050565b60007f00000000000000000000000000000000000000000000000000000000000000006001600160a01b0316634000aea07f000000000000000000000000000000000000000000000000000000000000000084866000604051602001610b85929190918252602082015260400190565b6040516020818303038152906040526040518463ffffffff1660e01b8152600401610bb293929190611498565b6020604051808303816000875af1158015610bd1573d6000803e3d6000fd5b505050506040513d601f19601f82011682018060405250810190610bf5919061150f565b506000838152600a6020818152604080842054815180840189905280830186905230606082015260808082018390528351808303909101815260a090910190925281519183019190912093879052919052610c519060016114f7565b6000858152600a60205260409020556109dc8482604080516020808201949094528082019290925280518083038201815260609092019052805191012090565b600081815260208190526040812060018101546001600160a01b03166103e05760405162461bcd60e51b8152602060048201526014602482015273151bdad95b88191bd95cc81b9bdd08195e1a5cdd60621b6044820152606401610410565b60008111610d375760405162461bcd60e51b815260206004820152601460248201527314985b991bdb5b995cdcc81b9bdd08199bdd5b9960621b6044820152606401610410565b600d546001600160a01b03166000908152600b60209081526040808320548084526010835292819020849055518281527f26cb13200e89dd1d4c26f02236cfdc952e04cc66f7329442c5e5886961598af99101610506565b6000818152602081905260409020600101546060906001600160a01b0316610e125760405162461bcd60e51b815260206004820152603060248201527f455243343637314d657461646174613a2055524920717565727920666f72206e60448201526f37b732bc34b9ba32b73a103a37b5b2b760811b6064820152608401610410565b6000610e2960408051602081019091526000815290565b90506000815111610e495760405180602001604052806000815250610e74565b80610e5384610ff5565b604051602001610e649291906114c8565b6040516020818303038152906040525b9392505050565b6000828152602081905260409020600101546001600160a01b031615610ee35760405162461bcd60e51b815260206004820152601d60248201527f43616e6e6f74206d696e7420616e2061737369676e656420746f6b656e0000006044820152606401610410565b6001600160a01b038316600090815260016020526040902054610f1957600160076000828254610f1391906114f7565b90915550505b604080516060810182523381526001600160a01b0385811660208084018281528615801586880190815260008a8152808552888120975188549088166001600160a01b031990911617885592516001978801805492511515600160a01b026001600160a81b03199093169190971617179094559182528381528482208054600283528684208985528352958320869055848252938501845592815291909120909101839055610b10576001600160a01b0383166000908152600360205260408120805460019290610feb9084906114f7565b9091555050505050565b6060816110195750506040805180820190915260018152600360fc1b602082015290565b8160005b8115611043578061102d81611531565b915061103c9050600a83611562565b915061101d565b60008167ffffffffffffffff81111561105e5761105e6111d2565b6040519080825280601f01601f191660200182016040528015611088576020820181803683370190505b5090505b84156109dc5761109d600183611430565b91506110aa600a86611576565b6110b59060306114f7565b60f81b8183815181106110ca576110ca611482565b60200101906001600160f81b031916908160001a9053506110ec600a86611562565b945061108c565b8280546110ff90611447565b90600052602060002090601f0160209004810192826111215760008555611167565b82601f1061113a57805160ff1916838001178555611167565b82800160010185558215611167579182015b8281111561116757825182559160200191906001019061114c565b50611173929150611177565b5090565b5b808211156111735760008155600101611178565b60006020828403121561119e57600080fd5b81356001600160e01b031981168114610e7457600080fd5b80356001600160a01b03811681146111cd57600080fd5b919050565b634e487b7160e01b600052604160045260246000fd5b600082601f8301126111f957600080fd5b813567ffffffffffffffff80821115611214576112146111d2565b604051601f8301601f19908116603f0116810190828211818310171561123c5761123c6111d2565b8160405283815286602085880101111561125557600080fd5b836020870160208301376000602085830101528094505050505092915050565b6000806040838503121561128857600080fd5b611291836111b6565b9150602083013567ffffffffffffffff8111156112ad57600080fd5b6112b9858286016111e8565b9150509250929050565b60005b838110156112de5781810151838201526020016112c6565b838111156112ed576000848401525b50505050565b6000815180845261130b8160208601602086016112c3565b601f01601f19169290920160200192915050565b602081526000610e7460208301846112f3565b60006020828403121561134457600080fd5b610e74826111b6565b6000806040838503121561136057600080fd5b611369836111b6565b946020939093013593505050565b60006020828403121561138957600080fd5b5035919050565b600080604083850312156113a357600080fd5b82359150602083013567ffffffffffffffff8111156112ad57600080fd5b600080604083850312156113d457600080fd5b50508035926020909101359150565b6020808252601e908201527f596f75206d7573742062652074686520636f6e7472616374206f776e65720000604082015260600190565b634e487b7160e01b600052601160045260246000fd5b6000828210156114425761144261141a565b500390565b600181811c9082168061145b57607f821691505b6020821081141561147c57634e487b7160e01b600052602260045260246000fd5b50919050565b634e487b7160e01b600052603260045260246000fd5b60018060a01b03841681528260208201526060604082015260006114bf60608301846112f3565b95945050505050565b600083516114da8184602088016112c3565b8351908301906114ee8183602088016112c3565b01949350505050565b6000821982111561150a5761150a61141a565b500190565b60006020828403121561152157600080fd5b81518015158114610e7457600080fd5b60006000198214156115455761154561141a565b5060010190565b634e487b7160e01b600052601260045260246000fd5b6000826115715761157161154c565b500490565b6000826115855761158561154c565b50069056fea2646970667358221220207015e2f8444609117ac2095c7f0b3817cfd71636b00dc6dfd106268f6f5aff64736f6c634300080b0033",
  "bytecodeSha1": "971e8afdf8cba24df7e25b04f8ccff80e78a65ea",
  "compiler": {
    "evm_version": "istanbul",
    "optimizer": {
      "enabled": true,
      "runs": 200
    },
    "version": "0.8.11+commit.d7f03943"
  },
  "contractName": "Course",
  "language": "Solidity",
  "natspec": {
    "kind": "dev",
    "methods": {
      "balanceOf(address)": {
        "notice": "Count all tokens assigned to an owner",
        "params": {
          "owner": "Address for whom to query the balance"
        },
        "returns": {
          "_0": "Number of tokens owned by `owner`"
        }
      },
      "emittedCount()": {
        "returns": {
          "_0": "emittedCount Number of tokens emitted"
        }
      },
      "hasValid(address)": {
        "notice": "Check if an address owns a valid token in the contract",
        "params": {
          "owner": "Address for whom to check the ownership"
        },
        "returns": {
          "_0": "True if `owner` has a valid token, false otherwise"
        }
      },
      "holdersCount()": {
        "returns": {
          "_0": "holdersCount Number of token holders"
        }
      },
      "isValid(uint256)": {
        "notice": "Check if a token hasn't been revoked",
        "params": {
          "tokenId": "Identifier of the token"
        },
        "returns": {
          "_0": "True if the token is valid, false otherwise"
        }
      },
      "name()": {
        "returns": {
          "_0": "Descriptive name of the tokens in this contract"
        }
      },
      "ownerOf(uint256)": {
        "notice": "Get owner of a token",
        "params": {
          "tokenId": "Identifier of the token"
        },
        "returns": {
          "_0": "Address of the owner of `tokenId`"
        }
      },
      "symbol()": {
        "returns": {
          "_0": "An abbreviated name of the tokens in this contract"
        }
      },
      "tokenByIndex(uint256)": {
        "notice": "Get a tokenId by it's index, where 0 <= index < total()",
        "params": {
          "index": "Index of the token"
        },
        "returns": {
          "_0": "tokenId of the token"
        }
      },
      "tokenOfOwnerByIndex(address,uint256)": {
        "notice": "Get the tokenId of a token using its position in the owner's list",
        "params": {
          "index": "Index of the token",
          "owner": "Address for whom to get the token"
        },
        "returns": {
          "_0": "tokenId of the token"
        }
      },
      "tokenURI(uint256)": {
        "details": "See {IERC721Metadata-tokenURI}."
      }
    },
    "version": 1
  },
  "opcodes": "PUSH1 0x80 PUSH1 0x40 MSTORE CALLVALUE DUP1 ISZERO PUSH2 0x10 JUMPI PUSH1 0x0 DUP1 REVERT JUMPDEST POP PUSH1 0x4 CALLDATASIZE LT PUSH2 0x14D JUMPI PUSH1 0x0 CALLDATALOAD PUSH1 0xE0 SHR DUP1 PUSH4 0x70A08231 GT PUSH2 0xC3 JUMPI DUP1 PUSH4 0x95D89B41 GT PUSH2 0x7C JUMPI DUP1 PUSH4 0x95D89B41 EQ PUSH2 0x2F6 JUMPI DUP1 PUSH4 0xC87B56DD EQ PUSH2 0x2FE JUMPI DUP1 PUSH4 0xDDCA3F43 EQ PUSH2 0x311 JUMPI DUP1 PUSH4 0xF577A500 EQ PUSH2 0x31A JUMPI DUP1 PUSH4 0xFAF18649 EQ PUSH2 0x32D JUMPI DUP1 PUSH4 0xFB157F59 EQ PUSH2 0x34D JUMPI PUSH1 0x0 DUP1 REVERT JUMPDEST DUP1 PUSH4 0x70A08231 EQ PUSH2 0x254 JUMPI DUP1 PUSH4 0x71759AF9 EQ PUSH2 0x27D JUMPI DUP1 PUSH4 0x7A83CA84 EQ PUSH2 0x29D JUMPI DUP1 PUSH4 0x8DA5CB5B EQ PUSH2 0x2BD JUMPI DUP1 PUSH4 0x91B669AD EQ PUSH2 0x2D0 JUMPI DUP1 PUSH4 0x94985DDD EQ PUSH2 0x2E3 JUMPI PUSH1 0x0 DUP1 REVERT JUMPDEST DUP1 PUSH4 0x2F745C59 GT PUSH2 0x115 JUMPI DUP1 PUSH4 0x2F745C59 EQ PUSH2 0x1C9 JUMPI DUP1 PUSH4 0x43945512 EQ PUSH2 0x1DC JUMPI DUP1 PUSH4 0x4F6CCCE7 EQ PUSH2 0x207 JUMPI DUP1 PUSH4 0x6352211E EQ PUSH2 0x218 JUMPI DUP1 PUSH4 0x69EBE78E EQ PUSH2 0x243 JUMPI DUP1 PUSH4 0x6B4ED21B EQ PUSH2 0x24C JUMPI PUSH1 0x0 DUP1 REVERT JUMPDEST DUP1 PUSH4 0x1FFC9A7 EQ PUSH2 0x152 JUMPI DUP1 PUSH4 0x2D64BF1 EQ PUSH2 0x17A JUMPI DUP1 PUSH4 0x6FDDE03 EQ PUSH2 0x18F JUMPI DUP1 PUSH4 0x26019C18 EQ PUSH2 0x1A4 JUMPI DUP1 PUSH4 0x29027AEC EQ PUSH2 0x1B6 JUMPI JUMPDEST PUSH1 0x0 DUP1 REVERT JUMPDEST PUSH2 0x165 PUSH2 0x160 CALLDATASIZE PUSH1 0x4 PUSH2 0x118C JUMP JUMPDEST PUSH2 0x379 JUMP JUMPDEST PUSH1 0x40 MLOAD SWAP1 ISZERO ISZERO DUP2 MSTORE PUSH1 0x20 ADD JUMPDEST PUSH1 0x40 MLOAD DUP1 SWAP2 SUB SWAP1 RETURN JUMPDEST PUSH2 0x18D PUSH2 0x188 CALLDATASIZE PUSH1 0x4 PUSH2 0x1275 JUMP JUMPDEST PUSH2 0x3E6 JUMP JUMPDEST STOP JUMPDEST PUSH2 0x197 PUSH2 0x513 JUMP JUMPDEST PUSH1 0x40 MLOAD PUSH2 0x171 SWAP2 SWAP1 PUSH2 0x131F JUMP JUMPDEST PUSH1 0x6 SLOAD JUMPDEST PUSH1 0x40 MLOAD SWAP1 DUP2 MSTORE PUSH1 0x20 ADD PUSH2 0x171 JUMP JUMPDEST PUSH2 0x18D PUSH2 0x1C4 CALLDATASIZE PUSH1 0x4 PUSH2 0x1332 JUMP JUMPDEST PUSH2 0x5A5 JUMP JUMPDEST PUSH2 0x1A8 PUSH2 0x1D7 CALLDATASIZE PUSH1 0x4 PUSH2 0x134D JUMP JUMPDEST PUSH2 0x69F JUMP JUMPDEST PUSH2 0x165 PUSH2 0x1EA CALLDATASIZE PUSH1 0x4 PUSH2 0x1332 JUMP JUMPDEST PUSH1 0x1 PUSH1 0x1 PUSH1 0xA0 SHL SUB AND PUSH1 0x0 SWAP1 DUP2 MSTORE PUSH1 0x3 PUSH1 0x20 MSTORE PUSH1 0x40 SWAP1 KECCAK256 SLOAD ISZERO ISZERO SWAP1 JUMP JUMPDEST PUSH2 0x1A8 PUSH2 0x215 CALLDATASIZE PUSH1 0x4 PUSH2 0x1377 JUMP JUMPDEST SWAP1 JUMP JUMPDEST PUSH2 0x22B PUSH2 0x226 CALLDATASIZE PUSH1 0x4 PUSH2 0x1377 JUMP JUMPDEST PUSH2 0x724 JUMP JUMPDEST PUSH1 0x40 MLOAD PUSH1 0x1 PUSH1 0x1 PUSH1 0xA0 SHL SUB SWAP1 SWAP2 AND DUP2 MSTORE PUSH1 0x20 ADD PUSH2 0x171 JUMP JUMPDEST PUSH2 0x1A8 PUSH1 0xF SLOAD DUP2 JUMP JUMPDEST PUSH1 0x7 SLOAD PUSH2 0x1A8 JUMP JUMPDEST PUSH2 0x1A8 PUSH2 0x262 CALLDATASIZE PUSH1 0x4 PUSH2 0x1332 JUMP JUMPDEST PUSH1 0x1 PUSH1 0x1 PUSH1 0xA0 SHL SUB AND PUSH1 0x0 SWAP1 DUP2 MSTORE PUSH1 0x1 PUSH1 0x20 MSTORE PUSH1 0x40 SWAP1 KECCAK256 SLOAD SWAP1 JUMP JUMPDEST PUSH2 0x1A8 PUSH2 0x28B CALLDATASIZE PUSH1 0x4 PUSH2 0x1377 JUMP JUMPDEST PUSH1 0x10 PUSH1 0x20 MSTORE PUSH1 0x0 SWAP1 DUP2 MSTORE PUSH1 0x40 SWAP1 KECCAK256 SLOAD DUP2 JUMP JUMPDEST PUSH2 0x1A8 PUSH2 0x2AB CALLDATASIZE PUSH1 0x4 PUSH2 0x1332 JUMP JUMPDEST PUSH1 0xB PUSH1 0x20 MSTORE PUSH1 0x0 SWAP1 DUP2 MSTORE PUSH1 0x40 SWAP1 KECCAK256 SLOAD DUP2 JUMP JUMPDEST PUSH1 0xC SLOAD PUSH2 0x22B SWAP1 PUSH1 0x1 PUSH1 0x1 PUSH1 0xA0 SHL SUB AND DUP2 JUMP JUMPDEST PUSH2 0x18D PUSH2 0x2DE CALLDATASIZE PUSH1 0x4 PUSH2 0x1390 JUMP JUMPDEST PUSH2 0x742 JUMP JUMPDEST PUSH2 0x18D PUSH2 0x2F1 CALLDATASIZE PUSH1 0x4 PUSH2 0x13C1 JUMP JUMPDEST PUSH2 0x7C4 JUMP JUMPDEST PUSH2 0x197 PUSH2 0x84A JUMP JUMPDEST PUSH2 0x197 PUSH2 0x30C CALLDATASIZE PUSH1 0x4 PUSH2 0x1377 JUMP JUMPDEST PUSH2 0x859 JUMP JUMPDEST PUSH2 0x1A8 PUSH1 0xE SLOAD DUP2 JUMP JUMPDEST PUSH2 0x165 PUSH2 0x328 CALLDATASIZE PUSH1 0x4 PUSH2 0x1377 JUMP JUMPDEST PUSH2 0x9E4 JUMP JUMPDEST PUSH2 0x1A8 PUSH2 0x33B CALLDATASIZE PUSH1 0x4 PUSH2 0x1377 JUMP JUMPDEST PUSH1 0x0 SWAP1 DUP2 MSTORE PUSH1 0x10 PUSH1 0x20 MSTORE PUSH1 0x40 SWAP1 KECCAK256 SLOAD SWAP1 JUMP JUMPDEST PUSH2 0x22B PUSH2 0x35B CALLDATASIZE PUSH1 0x4 PUSH2 0x1377 JUMP JUMPDEST PUSH1 0x0 SWAP1 DUP2 MSTORE PUSH1 0x20 DUP2 SWAP1 MSTORE PUSH1 0x40 SWAP1 KECCAK256 PUSH1 0x1 ADD SLOAD PUSH1 0x1 PUSH1 0x1 PUSH1 0xA0 SHL SUB AND SWAP1 JUMP JUMPDEST PUSH1 0x0 PUSH1 0x1 PUSH1 0x1 PUSH1 0xE0 SHL SUB NOT DUP3 AND PUSH4 0xA511533D PUSH1 0xE0 SHL EQ DUP1 PUSH2 0x3AA JUMPI POP PUSH1 0x1 PUSH1 0x1 PUSH1 0xE0 SHL SUB NOT DUP3 AND PUSH4 0x5B5E139F PUSH1 0xE0 SHL EQ JUMPDEST DUP1 PUSH2 0x3C5 JUMPI POP PUSH1 0x1 PUSH1 0x1 PUSH1 0xE0 SHL SUB NOT DUP3 AND PUSH4 0x2D57DEBD PUSH1 0xE0 SHL EQ JUMPDEST DUP1 PUSH2 0x3E0 JUMPI POP PUSH4 0x1FFC9A7 PUSH1 0xE0 SHL PUSH1 0x1 PUSH1 0x1 PUSH1 0xE0 SHL SUB NOT DUP4 AND EQ JUMPDEST SWAP3 SWAP2 POP POP JUMP JUMPDEST PUSH1 0xC SLOAD PUSH1 0x1 PUSH1 0x1 PUSH1 0xA0 SHL SUB AND CALLER EQ PUSH2 0x419 JUMPI PUSH1 0x40 MLOAD PUSH3 0x461BCD PUSH1 0xE5 SHL DUP2 MSTORE PUSH1 0x4 ADD PUSH2 0x410 SWAP1 PUSH2 0x13E3 JUMP JUMPDEST PUSH1 0x40 MLOAD DUP1 SWAP2 SUB SWAP1 REVERT JUMPDEST PUSH2 0x422 DUP3 PUSH2 0xA03 JUMP JUMPDEST POP PUSH1 0x1 PUSH2 0x42E PUSH1 0x6 SLOAD SWAP1 JUMP JUMPDEST PUSH2 0x438 SWAP2 SWAP1 PUSH2 0x1430 JUMP JUMPDEST PUSH1 0x1 PUSH1 0x1 PUSH1 0xA0 SHL SUB DUP4 AND PUSH1 0x0 DUP2 DUP2 MSTORE PUSH1 0xB PUSH1 0x20 MSTORE PUSH1 0x40 SWAP1 KECCAK256 SWAP2 DUP3 SSTORE PUSH1 0xD DUP1 SLOAD PUSH1 0x1 PUSH1 0x1 PUSH1 0xA0 SHL SUB NOT AND SWAP1 SWAP2 OR SWAP1 SSTORE SLOAD PUSH2 0x471 SWAP1 DUP3 PUSH2 0xA72 JUMP JUMPDEST PUSH1 0x0 PUSH2 0x481 PUSH1 0xF SLOAD PUSH1 0xE SLOAD PUSH2 0xB15 JUMP JUMPDEST SWAP1 POP PUSH32 0xE5F5B44D72D4143C278EB745C4ACC0695C4A5BC616BE5BEECF46ABE29661780E DUP2 PUSH1 0x40 MLOAD PUSH2 0x4B4 SWAP2 DUP2 MSTORE PUSH1 0x20 ADD SWAP1 JUMP JUMPDEST PUSH1 0x40 MLOAD DUP1 SWAP2 SUB SWAP1 LOG1 PUSH1 0x1 PUSH1 0x1 PUSH1 0xA0 SHL SUB DUP4 AND PUSH1 0x0 DUP2 DUP2 MSTORE PUSH1 0xB PUSH1 0x20 SWAP1 DUP2 MSTORE PUSH1 0x40 SWAP2 DUP3 SWAP1 KECCAK256 SLOAD DUP3 MLOAD SWAP4 DUP5 MSTORE SWAP1 DUP4 ADD MSTORE PUSH32 0xC0FEC69A370EEB4B030C24750D3565C38F525239AF926C03F0BABA1503D965A0 SWAP2 ADD JUMPDEST PUSH1 0x40 MLOAD DUP1 SWAP2 SUB SWAP1 LOG1 POP POP POP JUMP JUMPDEST PUSH1 0x60 PUSH1 0x4 DUP1 SLOAD PUSH2 0x522 SWAP1 PUSH2 0x1447 JUMP JUMPDEST DUP1 PUSH1 0x1F ADD PUSH1 0x20 DUP1 SWAP2 DIV MUL PUSH1 0x20 ADD PUSH1 0x40 MLOAD SWAP1 DUP2 ADD PUSH1 0x40 MSTORE DUP1 SWAP3 SWAP2 SWAP1 DUP2 DUP2 MSTORE PUSH1 0x20 ADD DUP3 DUP1 SLOAD PUSH2 0x54E SWAP1 PUSH2 0x1447 JUMP JUMPDEST DUP1 ISZERO PUSH2 0x59B JUMPI DUP1 PUSH1 0x1F LT PUSH2 0x570 JUMPI PUSH2 0x100 DUP1 DUP4 SLOAD DIV MUL DUP4 MSTORE SWAP2 PUSH1 0x20 ADD SWAP2 PUSH2 0x59B JUMP JUMPDEST DUP3 ADD SWAP2 SWAP1 PUSH1 0x0 MSTORE PUSH1 0x20 PUSH1 0x0 KECCAK256 SWAP1 JUMPDEST DUP2 SLOAD DUP2 MSTORE SWAP1 PUSH1 0x1 ADD SWAP1 PUSH1 0x20 ADD DUP1 DUP4 GT PUSH2 0x57E JUMPI DUP3 SWAP1 SUB PUSH1 0x1F AND DUP3 ADD SWAP2 JUMPDEST POP POP POP POP POP SWAP1 POP SWAP1 JUMP JUMPDEST PUSH1 0xC SLOAD PUSH1 0x1 PUSH1 0x1 PUSH1 0xA0 SHL SUB AND CALLER EQ PUSH2 0x5CF JUMPI PUSH1 0x40 MLOAD PUSH3 0x461BCD PUSH1 0xE5 SHL DUP2 MSTORE PUSH1 0x4 ADD PUSH2 0x410 SWAP1 PUSH2 0x13E3 JUMP JUMPDEST PUSH2 0x5D8 DUP2 PUSH2 0xA03 JUMP JUMPDEST POP PUSH1 0x6 SLOAD PUSH1 0x1 PUSH1 0x1 PUSH1 0xA0 SHL SUB DUP3 AND PUSH1 0x0 SWAP1 DUP2 MSTORE PUSH1 0xB PUSH1 0x20 MSTORE PUSH1 0x40 DUP2 KECCAK256 SWAP2 SWAP1 SWAP2 SSTORE PUSH1 0xF SLOAD PUSH1 0xE SLOAD PUSH2 0x608 SWAP2 SWAP1 PUSH2 0xB15 JUMP JUMPDEST SWAP1 POP PUSH32 0xE5F5B44D72D4143C278EB745C4ACC0695C4A5BC616BE5BEECF46ABE29661780E DUP2 PUSH1 0x40 MLOAD PUSH2 0x63B SWAP2 DUP2 MSTORE PUSH1 0x20 ADD SWAP1 JUMP JUMPDEST PUSH1 0x40 MLOAD DUP1 SWAP2 SUB SWAP1 LOG1 PUSH1 0xC SLOAD PUSH1 0x1 PUSH1 0x1 PUSH1 0xA0 SHL SUB SWAP1 DUP2 AND PUSH1 0x0 SWAP1 DUP2 MSTORE PUSH1 0xB PUSH1 0x20 SWAP1 DUP2 MSTORE PUSH1 0x40 SWAP2 DUP3 SWAP1 KECCAK256 SLOAD DUP3 MLOAD SWAP4 DUP7 AND DUP5 MSTORE SWAP1 DUP4 ADD MSTORE PUSH32 0xC0FEC69A370EEB4B030C24750D3565C38F525239AF926C03F0BABA1503D965A0 SWAP2 ADD JUMPDEST PUSH1 0x40 MLOAD DUP1 SWAP2 SUB SWAP1 LOG1 POP POP JUMP JUMPDEST PUSH1 0x1 PUSH1 0x1 PUSH1 0xA0 SHL SUB DUP3 AND PUSH1 0x0 SWAP1 DUP2 MSTORE PUSH1 0x1 PUSH1 0x20 MSTORE PUSH1 0x40 DUP2 KECCAK256 DUP1 SLOAD DUP4 LT PUSH2 0x6FE JUMPI PUSH1 0x40 MLOAD PUSH3 0x461BCD PUSH1 0xE5 SHL DUP2 MSTORE PUSH1 0x20 PUSH1 0x4 DUP3 ADD MSTORE PUSH1 0x14 PUSH1 0x24 DUP3 ADD MSTORE PUSH20 0x151BDAD95B88191BD95CC81B9BDD08195E1A5CDD PUSH1 0x62 SHL PUSH1 0x44 DUP3 ADD MSTORE PUSH1 0x64 ADD PUSH2 0x410 JUMP JUMPDEST DUP1 DUP4 DUP2 SLOAD DUP2 LT PUSH2 0x710 JUMPI PUSH2 0x710 PUSH2 0x1482 JUMP JUMPDEST SWAP1 PUSH1 0x0 MSTORE PUSH1 0x20 PUSH1 0x0 KECCAK256 ADD SLOAD SWAP2 POP POP SWAP3 SWAP2 POP POP JUMP JUMPDEST PUSH1 0x0 PUSH2 0x72F DUP3 PUSH2 0xC91 JUMP JUMPDEST PUSH1 0x1 ADD SLOAD PUSH1 0x1 PUSH1 0x1 PUSH1 0xA0 SHL SUB AND SWAP3 SWAP2 POP POP JUMP JUMPDEST PUSH1 0xC SLOAD PUSH1 0x1 PUSH1 0x1 PUSH1 0xA0 SHL SUB AND CALLER EQ PUSH2 0x76C JUMPI PUSH1 0x40 MLOAD PUSH3 0x461BCD PUSH1 0xE5 SHL DUP2 MSTORE PUSH1 0x4 ADD PUSH2 0x410 SWAP1 PUSH2 0x13E3 JUMP JUMPDEST PUSH2 0x776 DUP3 DUP3 PUSH2 0xA72 JUMP JUMPDEST PUSH1 0x0 DUP3 DUP2 MSTORE PUSH1 0x20 DUP2 SWAP1 MSTORE PUSH1 0x40 SWAP1 KECCAK256 PUSH1 0x1 ADD SLOAD PUSH32 0xFBFA2E72E1AB1E10A8B9E46851482D1C25490C68FC5A42952C3769E53A2AEDD0 SWAP1 PUSH1 0x1 PUSH1 0x1 PUSH1 0xA0 SHL SUB AND DUP4 DUP4 PUSH1 0x40 MLOAD PUSH2 0x693 SWAP4 SWAP3 SWAP2 SWAP1 PUSH2 0x1498 JUMP JUMPDEST CALLER PUSH1 0x1 PUSH1 0x1 PUSH1 0xA0 SHL SUB PUSH32 0x0 AND EQ PUSH2 0x83C JUMPI PUSH1 0x40 MLOAD PUSH3 0x461BCD PUSH1 0xE5 SHL DUP2 MSTORE PUSH1 0x20 PUSH1 0x4 DUP3 ADD MSTORE PUSH1 0x1F PUSH1 0x24 DUP3 ADD MSTORE PUSH32 0x4F6E6C7920565246436F6F7264696E61746F722063616E2066756C66696C6C00 PUSH1 0x44 DUP3 ADD MSTORE PUSH1 0x64 ADD PUSH2 0x410 JUMP JUMPDEST PUSH2 0x846 DUP3 DUP3 PUSH2 0xCF0 JUMP JUMPDEST POP POP JUMP JUMPDEST PUSH1 0x60 PUSH1 0x5 DUP1 SLOAD PUSH2 0x522 SWAP1 PUSH2 0x1447 JUMP JUMPDEST PUSH1 0x0 DUP2 DUP2 MSTORE PUSH1 0x20 DUP2 SWAP1 MSTORE PUSH1 0x40 SWAP1 KECCAK256 PUSH1 0x1 ADD SLOAD PUSH1 0x60 SWAP1 PUSH1 0x1 PUSH1 0x1 PUSH1 0xA0 SHL SUB AND PUSH2 0x8DE JUMPI PUSH1 0x40 MLOAD PUSH3 0x461BCD PUSH1 0xE5 SHL DUP2 MSTORE PUSH1 0x20 PUSH1 0x4 DUP3 ADD MSTORE PUSH1 0x32 PUSH1 0x24 DUP3 ADD MSTORE PUSH32 0x4552433436373155524953746F726167653A2055524920717565727920666F72 PUSH1 0x44 DUP3 ADD MSTORE PUSH18 0x103737B732BC34B9BA32B73A103A37B5B2B7 PUSH1 0x71 SHL PUSH1 0x64 DUP3 ADD MSTORE PUSH1 0x84 ADD PUSH2 0x410 JUMP JUMPDEST PUSH1 0x0 DUP3 DUP2 MSTORE PUSH1 0x9 PUSH1 0x20 MSTORE PUSH1 0x40 DUP2 KECCAK256 DUP1 SLOAD PUSH2 0x8F7 SWAP1 PUSH2 0x1447 JUMP JUMPDEST DUP1 PUSH1 0x1F ADD PUSH1 0x20 DUP1 SWAP2 DIV MUL PUSH1 0x20 ADD PUSH1 0x40 MLOAD SWAP1 DUP2 ADD PUSH1 0x40 MSTORE DUP1 SWAP3 SWAP2 SWAP1 DUP2 DUP2 MSTORE PUSH1 0x20 ADD DUP3 DUP1 SLOAD PUSH2 0x923 SWAP1 PUSH2 0x1447 JUMP JUMPDEST DUP1 ISZERO PUSH2 0x970 JUMPI DUP1 PUSH1 0x1F LT PUSH2 0x945 JUMPI PUSH2 0x100 DUP1 DUP4 SLOAD DIV MUL DUP4 MSTORE SWAP2 PUSH1 0x20 ADD SWAP2 PUSH2 0x970 JUMP JUMPDEST DUP3 ADD SWAP2 SWAP1 PUSH1 0x0 MSTORE PUSH1 0x20 PUSH1 0x0 KECCAK256 SWAP1 JUMPDEST DUP2 SLOAD DUP2 MSTORE SWAP1 PUSH1 0x1 ADD SWAP1 PUSH1 0x20 ADD DUP1 DUP4 GT PUSH2 0x953 JUMPI DUP3 SWAP1 SUB PUSH1 0x1F AND DUP3 ADD SWAP2 JUMPDEST POP POP POP POP POP SWAP1 POP PUSH1 0x0 PUSH2 0x98E PUSH1 0x40 DUP1 MLOAD PUSH1 0x20 DUP2 ADD SWAP1 SWAP2 MSTORE PUSH1 0x0 DUP2 MSTORE SWAP1 JUMP JUMPDEST SWAP1 POP DUP1 MLOAD PUSH1 0x0 EQ ISZERO PUSH2 0x9A1 JUMPI POP SWAP3 SWAP2 POP POP JUMP JUMPDEST DUP2 MLOAD ISZERO PUSH2 0x9D3 JUMPI DUP1 DUP3 PUSH1 0x40 MLOAD PUSH1 0x20 ADD PUSH2 0x9BB SWAP3 SWAP2 SWAP1 PUSH2 0x14C8 JUMP JUMPDEST PUSH1 0x40 MLOAD PUSH1 0x20 DUP2 DUP4 SUB SUB DUP2 MSTORE SWAP1 PUSH1 0x40 MSTORE SWAP3 POP POP POP SWAP2 SWAP1 POP JUMP JUMPDEST PUSH2 0x9DC DUP5 PUSH2 0xD8F JUMP JUMPDEST SWAP5 SWAP4 POP POP POP POP JUMP JUMPDEST PUSH1 0x0 PUSH2 0x9EF DUP3 PUSH2 0xC91 JUMP JUMPDEST PUSH1 0x1 ADD SLOAD PUSH1 0x1 PUSH1 0xA0 SHL SWAP1 DIV PUSH1 0xFF AND SWAP3 SWAP2 POP POP JUMP JUMPDEST PUSH1 0x6 SLOAD PUSH2 0xA12 DUP3 DUP3 PUSH1 0x1 PUSH2 0xE7B JUMP JUMPDEST PUSH1 0x40 DUP1 MLOAD PUSH1 0x1 PUSH1 0x1 PUSH1 0xA0 SHL SUB DUP5 AND DUP2 MSTORE PUSH1 0x20 DUP2 ADD DUP4 SWAP1 MSTORE PUSH32 0x30385C845B448A36257A6A1716E6AD2E1BC2CBE333CDE1E69FE849AD6511ADFE SWAP2 ADD PUSH1 0x40 MLOAD DUP1 SWAP2 SUB SWAP1 LOG1 PUSH1 0x1 PUSH1 0x6 PUSH1 0x0 DUP3 DUP3 SLOAD PUSH2 0xA67 SWAP2 SWAP1 PUSH2 0x14F7 JUMP JUMPDEST SWAP1 SWAP2 SSTORE POP SWAP1 SWAP3 SWAP2 POP POP JUMP JUMPDEST PUSH1 0x0 DUP3 DUP2 MSTORE PUSH1 0x20 DUP2 SWAP1 MSTORE PUSH1 0x40 SWAP1 KECCAK256 PUSH1 0x1 ADD SLOAD PUSH1 0x1 PUSH1 0x1 PUSH1 0xA0 SHL SUB AND PUSH2 0xAF1 JUMPI PUSH1 0x40 MLOAD PUSH3 0x461BCD PUSH1 0xE5 SHL DUP2 MSTORE PUSH1 0x20 PUSH1 0x4 DUP3 ADD MSTORE PUSH1 0x2F PUSH1 0x24 DUP3 ADD MSTORE PUSH32 0x4552433436373155524953746F726167653A2055524920736574206F66206E6F PUSH1 0x44 DUP3 ADD MSTORE PUSH15 0x3732BC34B9BA32B73A103A37B5B2B7 PUSH1 0x89 SHL PUSH1 0x64 DUP3 ADD MSTORE PUSH1 0x84 ADD PUSH2 0x410 JUMP JUMPDEST PUSH1 0x0 DUP3 DUP2 MSTORE PUSH1 0x9 PUSH1 0x20 SWAP1 DUP2 MSTORE PUSH1 0x40 SWAP1 SWAP2 KECCAK256 DUP3 MLOAD PUSH2 0xB10 SWAP3 DUP5 ADD SWAP1 PUSH2 0x10F3 JUMP JUMPDEST POP POP POP JUMP JUMPDEST PUSH1 0x0 PUSH32 0x0 PUSH1 0x1 PUSH1 0x1 PUSH1 0xA0 SHL SUB AND PUSH4 0x4000AEA0 PUSH32 0x0 DUP5 DUP7 PUSH1 0x0 PUSH1 0x40 MLOAD PUSH1 0x20 ADD PUSH2 0xB85 SWAP3 SWAP2 SWAP1 SWAP2 DUP3 MSTORE PUSH1 0x20 DUP3 ADD MSTORE PUSH1 0x40 ADD SWAP1 JUMP JUMPDEST PUSH1 0x40 MLOAD PUSH1 0x20 DUP2 DUP4 SUB SUB DUP2 MSTORE SWAP1 PUSH1 0x40 MSTORE PUSH1 0x40 MLOAD DUP5 PUSH4 0xFFFFFFFF AND PUSH1 0xE0 SHL DUP2 MSTORE PUSH1 0x4 ADD PUSH2 0xBB2 SWAP4 SWAP3 SWAP2 SWAP1 PUSH2 0x1498 JUMP JUMPDEST PUSH1 0x20 PUSH1 0x40 MLOAD DUP1 DUP4 SUB DUP2 PUSH1 0x0 DUP8 GAS CALL ISZERO DUP1 ISZERO PUSH2 0xBD1 JUMPI RETURNDATASIZE PUSH1 0x0 DUP1 RETURNDATACOPY RETURNDATASIZE PUSH1 0x0 REVERT JUMPDEST POP POP POP POP PUSH1 0x40 MLOAD RETURNDATASIZE PUSH1 0x1F NOT PUSH1 0x1F DUP3 ADD AND DUP3 ADD DUP1 PUSH1 0x40 MSTORE POP DUP2 ADD SWAP1 PUSH2 0xBF5 SWAP2 SWAP1 PUSH2 0x150F JUMP JUMPDEST POP PUSH1 0x0 DUP4 DUP2 MSTORE PUSH1 0xA PUSH1 0x20 DUP2 DUP2 MSTORE PUSH1 0x40 DUP1 DUP5 KECCAK256 SLOAD DUP2 MLOAD DUP1 DUP5 ADD DUP10 SWAP1 MSTORE DUP1 DUP4 ADD DUP7 SWAP1 MSTORE ADDRESS PUSH1 0x60 DUP3 ADD MSTORE PUSH1 0x80 DUP1 DUP3 ADD DUP4 SWAP1 MSTORE DUP4 MLOAD DUP1 DUP4 SUB SWAP1 SWAP2 ADD DUP2 MSTORE PUSH1 0xA0 SWAP1 SWAP2 ADD SWAP1 SWAP3 MSTORE DUP2 MLOAD SWAP2 DUP4 ADD SWAP2 SWAP1 SWAP2 KECCAK256 SWAP4 DUP8 SWAP1 MSTORE SWAP2 SWAP1 MSTORE PUSH2 0xC51 SWAP1 PUSH1 0x1 PUSH2 0x14F7 JUMP JUMPDEST PUSH1 0x0 DUP6 DUP2 MSTORE PUSH1 0xA PUSH1 0x20 MSTORE PUSH1 0x40 SWAP1 KECCAK256 SSTORE PUSH2 0x9DC DUP5 DUP3 PUSH1 0x40 DUP1 MLOAD PUSH1 0x20 DUP1 DUP3 ADD SWAP5 SWAP1 SWAP5 MSTORE DUP1 DUP3 ADD SWAP3 SWAP1 SWAP3 MSTORE DUP1 MLOAD DUP1 DUP4 SUB DUP3 ADD DUP2 MSTORE PUSH1 0x60 SWAP1 SWAP3 ADD SWAP1 MSTORE DUP1 MLOAD SWAP2 ADD KECCAK256 SWAP1 JUMP JUMPDEST PUSH1 0x0 DUP2 DUP2 MSTORE PUSH1 0x20 DUP2 SWAP1 MSTORE PUSH1 0x40 DUP2 KECCAK256 PUSH1 0x1 DUP2 ADD SLOAD PUSH1 0x1 PUSH1 0x1 PUSH1 0xA0 SHL SUB AND PUSH2 0x3E0 JUMPI PUSH1 0x40 MLOAD PUSH3 0x461BCD PUSH1 0xE5 SHL DUP2 MSTORE PUSH1 0x20 PUSH1 0x4 DUP3 ADD MSTORE PUSH1 0x14 PUSH1 0x24 DUP3 ADD MSTORE PUSH20 0x151BDAD95B88191BD95CC81B9BDD08195E1A5CDD PUSH1 0x62 SHL PUSH1 0x44 DUP3 ADD MSTORE PUSH1 0x64 ADD PUSH2 0x410 JUMP JUMPDEST PUSH1 0x0 DUP2 GT PUSH2 0xD37 JUMPI PUSH1 0x40 MLOAD PUSH3 0x461BCD PUSH1 0xE5 SHL DUP2 MSTORE PUSH1 0x20 PUSH1 0x4 DUP3 ADD MSTORE PUSH1 0x14 PUSH1 0x24 DUP3 ADD MSTORE PUSH20 0x14985B991BDB5B995CDCC81B9BDD08199BDD5B99 PUSH1 0x62 SHL PUSH1 0x44 DUP3 ADD MSTORE PUSH1 0x64 ADD PUSH2 0x410 JUMP JUMPDEST PUSH1 0xD SLOAD PUSH1 0x1 PUSH1 0x1 PUSH1 0xA0 SHL SUB AND PUSH1 0x0 SWAP1 DUP2 MSTORE PUSH1 0xB PUSH1 0x20 SWAP1 DUP2 MSTORE PUSH1 0x40 DUP1 DUP4 KECCAK256 SLOAD DUP1 DUP5 MSTORE PUSH1 0x10 DUP4 MSTORE SWAP3 DUP2 SWAP1 KECCAK256 DUP5 SWAP1 SSTORE MLOAD DUP3 DUP2 MSTORE PUSH32 0x26CB13200E89DD1D4C26F02236CFDC952E04CC66F7329442C5E5886961598AF9 SWAP2 ADD PUSH2 0x506 JUMP JUMPDEST PUSH1 0x0 DUP2 DUP2 MSTORE PUSH1 0x20 DUP2 SWAP1 MSTORE PUSH1 0x40 SWAP1 KECCAK256 PUSH1 0x1 ADD SLOAD PUSH1 0x60 SWAP1 PUSH1 0x1 PUSH1 0x1 PUSH1 0xA0 SHL SUB AND PUSH2 0xE12 JUMPI PUSH1 0x40 MLOAD PUSH3 0x461BCD PUSH1 0xE5 SHL DUP2 MSTORE PUSH1 0x20 PUSH1 0x4 DUP3 ADD MSTORE PUSH1 0x30 PUSH1 0x24 DUP3 ADD MSTORE PUSH32 0x455243343637314D657461646174613A2055524920717565727920666F72206E PUSH1 0x44 DUP3 ADD MSTORE PUSH16 0x37B732BC34B9BA32B73A103A37B5B2B7 PUSH1 0x81 SHL PUSH1 0x64 DUP3 ADD MSTORE PUSH1 0x84 ADD PUSH2 0x410 JUMP JUMPDEST PUSH1 0x0 PUSH2 0xE29 PUSH1 0x40 DUP1 MLOAD PUSH1 0x20 DUP2 ADD SWAP1 SWAP2 MSTORE PUSH1 0x0 DUP2 MSTORE SWAP1 JUMP JUMPDEST SWAP1 POP PUSH1 0x0 DUP2 MLOAD GT PUSH2 0xE49 JUMPI PUSH1 0x40 MLOAD DUP1 PUSH1 0x20 ADD PUSH1 0x40 MSTORE DUP1 PUSH1 0x0 DUP2 MSTORE POP PUSH2 0xE74 JUMP JUMPDEST DUP1 PUSH2 0xE53 DUP5 PUSH2 0xFF5 JUMP JUMPDEST PUSH1 0x40 MLOAD PUSH1 0x20 ADD PUSH2 0xE64 SWAP3 SWAP2 SWAP1 PUSH2 0x14C8 JUMP JUMPDEST PUSH1 0x40 MLOAD PUSH1 0x20 DUP2 DUP4 SUB SUB DUP2 MSTORE SWAP1 PUSH1 0x40 MSTORE JUMPDEST SWAP4 SWAP3 POP POP POP JUMP JUMPDEST PUSH1 0x0 DUP3 DUP2 MSTORE PUSH1 0x20 DUP2 SWAP1 MSTORE PUSH1 0x40 SWAP1 KECCAK256 PUSH1 0x1 ADD SLOAD PUSH1 0x1 PUSH1 0x1 PUSH1 0xA0 SHL SUB AND ISZERO PUSH2 0xEE3 JUMPI PUSH1 0x40 MLOAD PUSH3 0x461BCD PUSH1 0xE5 SHL DUP2 MSTORE PUSH1 0x20 PUSH1 0x4 DUP3 ADD MSTORE PUSH1 0x1D PUSH1 0x24 DUP3 ADD MSTORE PUSH32 0x43616E6E6F74206D696E7420616E2061737369676E656420746F6B656E000000 PUSH1 0x44 DUP3 ADD MSTORE PUSH1 0x64 ADD PUSH2 0x410 JUMP JUMPDEST PUSH1 0x1 PUSH1 0x1 PUSH1 0xA0 SHL SUB DUP4 AND PUSH1 0x0 SWAP1 DUP2 MSTORE PUSH1 0x1 PUSH1 0x20 MSTORE PUSH1 0x40 SWAP1 KECCAK256 SLOAD PUSH2 0xF19 JUMPI PUSH1 0x1 PUSH1 0x7 PUSH1 0x0 DUP3 DUP3 SLOAD PUSH2 0xF13 SWAP2 SWAP1 PUSH2 0x14F7 JUMP JUMPDEST SWAP1 SWAP2 SSTORE POP POP JUMPDEST PUSH1 0x40 DUP1 MLOAD PUSH1 0x60 DUP2 ADD DUP3 MSTORE CALLER DUP2 MSTORE PUSH1 0x1 PUSH1 0x1 PUSH1 0xA0 SHL SUB DUP6 DUP2 AND PUSH1 0x20 DUP1 DUP5 ADD DUP3 DUP2 MSTORE DUP7 ISZERO DUP1 ISZERO DUP7 DUP9 ADD SWAP1 DUP2 MSTORE PUSH1 0x0 DUP11 DUP2 MSTORE DUP1 DUP6 MSTORE DUP9 DUP2 KECCAK256 SWAP8 MLOAD DUP9 SLOAD SWAP1 DUP9 AND PUSH1 0x1 PUSH1 0x1 PUSH1 0xA0 SHL SUB NOT SWAP1 SWAP2 AND OR DUP9 SSTORE SWAP3 MLOAD PUSH1 0x1 SWAP8 DUP9 ADD DUP1 SLOAD SWAP3 MLOAD ISZERO ISZERO PUSH1 0x1 PUSH1 0xA0 SHL MUL PUSH1 0x1 PUSH1 0x1 PUSH1 0xA8 SHL SUB NOT SWAP1 SWAP4 AND SWAP2 SWAP1 SWAP8 AND OR OR SWAP1 SWAP5 SSTORE SWAP2 DUP3 MSTORE DUP4 DUP2 MSTORE DUP5 DUP3 KECCAK256 DUP1 SLOAD PUSH1 0x2 DUP4 MSTORE DUP7 DUP5 KECCAK256 DUP10 DUP6 MSTORE DUP4 MSTORE SWAP6 DUP4 KECCAK256 DUP7 SWAP1 SSTORE DUP5 DUP3 MSTORE SWAP4 DUP6 ADD DUP5 SSTORE SWAP3 DUP2 MSTORE SWAP2 SWAP1 SWAP2 KECCAK256 SWAP1 SWAP2 ADD DUP4 SWAP1 SSTORE PUSH2 0xB10 JUMPI PUSH1 0x1 PUSH1 0x1 PUSH1 0xA0 SHL SUB DUP4 AND PUSH1 0x0 SWAP1 DUP2 MSTORE PUSH1 0x3 PUSH1 0x20 MSTORE PUSH1 0x40 DUP2 KECCAK256 DUP1 SLOAD PUSH1 0x1 SWAP3 SWAP1 PUSH2 0xFEB SWAP1 DUP5 SWAP1 PUSH2 0x14F7 JUMP JUMPDEST SWAP1 SWAP2 SSTORE POP POP POP POP POP JUMP JUMPDEST PUSH1 0x60 DUP2 PUSH2 0x1019 JUMPI POP POP PUSH1 0x40 DUP1 MLOAD DUP1 DUP3 ADD SWAP1 SWAP2 MSTORE PUSH1 0x1 DUP2 MSTORE PUSH1 0x3 PUSH1 0xFC SHL PUSH1 0x20 DUP3 ADD MSTORE SWAP1 JUMP JUMPDEST DUP2 PUSH1 0x0 JUMPDEST DUP2 ISZERO PUSH2 0x1043 JUMPI DUP1 PUSH2 0x102D DUP2 PUSH2 0x1531 JUMP JUMPDEST SWAP2 POP PUSH2 0x103C SWAP1 POP PUSH1 0xA DUP4 PUSH2 0x1562 JUMP JUMPDEST SWAP2 POP PUSH2 0x101D JUMP JUMPDEST PUSH1 0x0 DUP2 PUSH8 0xFFFFFFFFFFFFFFFF DUP2 GT ISZERO PUSH2 0x105E JUMPI PUSH2 0x105E PUSH2 0x11D2 JUMP JUMPDEST PUSH1 0x40 MLOAD SWAP1 DUP1 DUP3 MSTORE DUP1 PUSH1 0x1F ADD PUSH1 0x1F NOT AND PUSH1 0x20 ADD DUP3 ADD PUSH1 0x40 MSTORE DUP1 ISZERO PUSH2 0x1088 JUMPI PUSH1 0x20 DUP3 ADD DUP2 DUP1 CALLDATASIZE DUP4 CALLDATACOPY ADD SWAP1 POP JUMPDEST POP SWAP1 POP JUMPDEST DUP5 ISZERO PUSH2 0x9DC JUMPI PUSH2 0x109D PUSH1 0x1 DUP4 PUSH2 0x1430 JUMP JUMPDEST SWAP2 POP PUSH2 0x10AA PUSH1 0xA DUP7 PUSH2 0x1576 JUMP JUMPDEST PUSH2 0x10B5 SWAP1 PUSH1 0x30 PUSH2 0x14F7 JUMP JUMPDEST PUSH1 0xF8 SHL DUP2 DUP4 DUP2 MLOAD DUP2 LT PUSH2 0x10CA JUMPI PUSH2 0x10CA PUSH2 0x1482 JUMP JUMPDEST PUSH1 0x20 ADD ADD SWAP1 PUSH1 0x1 PUSH1 0x1 PUSH1 0xF8 SHL SUB NOT AND SWAP1 DUP2 PUSH1 0x0 BYTE SWAP1 MSTORE8 POP PUSH2 0x10EC PUSH1 0xA DUP7 PUSH2 0x1562 JUMP JUMPDEST SWAP5 POP PUSH2 0x108C JUMP JUMPDEST DUP3 DUP1 SLOAD PUSH2 0x10FF SWAP1 PUSH2 0x1447 JUMP JUMPDEST SWAP1 PUSH1 0x0 MSTORE PUSH1 0x20 PUSH1 0x0 KECCAK256 SWAP1 PUSH1 0x1F ADD PUSH1 0x20 SWAP1 DIV DUP2 ADD SWAP3 DUP3 PUSH2 0x1121 JUMPI PUSH1 0x0 DUP6 SSTORE PUSH2 0x1167 JUMP JUMPDEST DUP3 PUSH1 0x1F LT PUSH2 0x113A JUMPI DUP1 MLOAD PUSH1 0xFF NOT AND DUP4 DUP1 ADD OR DUP6 SSTORE PUSH2 0x1167 JUMP JUMPDEST DUP3 DUP1 ADD PUSH1 0x1 ADD DUP6 SSTORE DUP3 ISZERO PUSH2 0x1167 JUMPI SWAP2 DUP3 ADD JUMPDEST DUP3 DUP2 GT ISZERO PUSH2 0x1167 JUMPI DUP3 MLOAD DUP3 SSTORE SWAP2 PUSH1 0x20 ADD SWAP2 SWAP1 PUSH1 0x1 ADD SWAP1 PUSH2 0x114C JUMP JUMPDEST POP PUSH2 0x1173 SWAP3 SWAP2 POP PUSH2 0x1177 JUMP JUMPDEST POP SWAP1 JUMP JUMPDEST JUMPDEST DUP1 DUP3 GT ISZERO PUSH2 0x1173 JUMPI PUSH1 0x0 DUP2 SSTORE PUSH1 0x1 ADD PUSH2 0x1178 JUMP JUMPDEST PUSH1 0x0 PUSH1 0x20 DUP3 DUP5 SUB SLT ISZERO PUSH2 0x119E JUMPI PUSH1 0x0 DUP1 REVERT JUMPDEST DUP2 CALLDATALOAD PUSH1 0x1 PUSH1 0x1 PUSH1 0xE0 SHL SUB NOT DUP2 AND DUP2 EQ PUSH2 0xE74 JUMPI PUSH1 0x0 DUP1 REVERT JUMPDEST DUP1 CALLDATALOAD PUSH1 0x1 PUSH1 0x1 PUSH1 0xA0 SHL SUB DUP2 AND DUP2 EQ PUSH2 0x11CD JUMPI PUSH1 0x0 DUP1 REVERT JUMPDEST SWAP2 SWAP1 POP JUMP JUMPDEST PUSH4 0x4E487B71 PUSH1 0xE0 SHL PUSH1 0x0 MSTORE PUSH1 0x41 PUSH1 0x4 MSTORE PUSH1 0x24 PUSH1 0x0 REVERT JUMPDEST PUSH1 0x0 DUP3 PUSH1 0x1F DUP4 ADD SLT PUSH2 0x11F9 JUMPI PUSH1 0x0 DUP1 REVERT JUMPDEST DUP2 CALLDATALOAD PUSH8 0xFFFFFFFFFFFFFFFF DUP1 DUP3 GT ISZERO PUSH2 0x1214 JUMPI PUSH2 0x1214 PUSH2 0x11D2 JUMP JUMPDEST PUSH1 0x40 MLOAD PUSH1 0x1F DUP4 ADD PUSH1 0x1F NOT SWAP1 DUP2 AND PUSH1 0x3F ADD AND DUP2 ADD SWAP1 DUP3 DUP3 GT DUP2 DUP4 LT OR ISZERO PUSH2 0x123C JUMPI PUSH2 0x123C PUSH2 0x11D2 JUMP JUMPDEST DUP2 PUSH1 0x40 MSTORE DUP4 DUP2 MSTORE DUP7 PUSH1 0x20 DUP6 DUP9 ADD ADD GT ISZERO PUSH2 0x1255 JUMPI PUSH1 0x0 DUP1 REVERT JUMPDEST DUP4 PUSH1 0x20 DUP8 ADD PUSH1 0x20 DUP4 ADD CALLDATACOPY PUSH1 0x0 PUSH1 0x20 DUP6 DUP4 ADD ADD MSTORE DUP1 SWAP5 POP POP POP POP POP SWAP3 SWAP2 POP POP JUMP JUMPDEST PUSH1 0x0 DUP1 PUSH1 0x40 DUP4 DUP6 SUB SLT ISZERO PUSH2 0x1288 JUMPI PUSH1 0x0 DUP1 REVERT JUMPDEST PUSH2 0x1291 DUP4 PUSH2 0x11B6 JUMP JUMPDEST SWAP2 POP PUSH1 0x20 DUP4 ADD CALLDATALOAD PUSH8 0xFFFFFFFFFFFFFFFF DUP2 GT ISZERO PUSH2 0x12AD JUMPI PUSH1 0x0 DUP1 REVERT JUMPDEST PUSH2 0x12B9 DUP6 DUP3 DUP7 ADD PUSH2 0x11E8 JUMP JUMPDEST SWAP2 POP POP SWAP3 POP SWAP3 SWAP1 POP JUMP JUMPDEST PUSH1 0x0 JUMPDEST DUP4 DUP2 LT ISZERO PUSH2 0x12DE JUMPI DUP2 DUP2 ADD MLOAD DUP4 DUP3 ADD MSTORE PUSH1 0x20 ADD PUSH2 0x12C6 JUMP JUMPDEST DUP4 DUP2 GT ISZERO PUSH2 0x12ED JUMPI PUSH1 0x0 DUP5 DUP5 ADD MSTORE JUMPDEST POP POP POP POP JUMP JUMPDEST PUSH1 0x0 DUP2 MLOAD DUP1 DUP5 MSTORE PUSH2 0x130B DUP2 PUSH1 0x20 DUP7 ADD PUSH1 0x20 DUP7 ADD PUSH2 0x12C3 JUMP JUMPDEST PUSH1 0x1F ADD PUSH1 0x1F NOT AND SWAP3 SWAP1 SWAP3 ADD PUSH1 0x20 ADD SWAP3 SWAP2 POP POP JUMP JUMPDEST PUSH1 0x20 DUP2 MSTORE PUSH1 0x0 PUSH2 0xE74 PUSH1 0x20 DUP4 ADD DUP5 PUSH2 0x12F3 JUMP JUMPDEST PUSH1 0x0 PUSH1 0x20 DUP3 DUP5 SUB SLT ISZERO PUSH2 0x1344 JUMPI PUSH1 0x0 DUP1 REVERT JUMPDEST PUSH2 0xE74 DUP3 PUSH2 0x11B6 JUMP JUMPDEST PUSH1 0x0 DUP1 PUSH1 0x40 DUP4 DUP6 SUB SLT ISZERO PUSH2 0x1360 JUMPI PUSH1 0x0 DUP1 REVERT JUMPDEST PUSH2 0x1369 DUP4 PUSH2 0x11B6 JUMP JUMPDEST SWAP5 PUSH1 0x20 SWAP4 SWAP1 SWAP4 ADD CALLDATALOAD SWAP4 POP POP POP JUMP JUMPDEST PUSH1 0x0 PUSH1 0x20 DUP3 DUP5 SUB SLT ISZERO PUSH2 0x1389 JUMPI PUSH1 0x0 DUP1 REVERT JUMPDEST POP CALLDATALOAD SWAP2 SWAP1 POP JUMP JUMPDEST PUSH1 0x0 DUP1 PUSH1 0x40 DUP4 DUP6 SUB SLT ISZERO PUSH2 0x13A3 JUMPI PUSH1 0x0 DUP1 REVERT JUMPDEST DUP3 CALLDATALOAD SWAP2 POP PUSH1 0x20 DUP4 ADD CALLDATALOAD PUSH8 0xFFFFFFFFFFFFFFFF DUP2 GT ISZERO PUSH2 0x12AD JUMPI PUSH1 0x0 DUP1 REVERT JUMPDEST PUSH1 0x0 DUP1 PUSH1 0x40 DUP4 DUP6 SUB SLT ISZERO PUSH2 0x13D4 JUMPI PUSH1 0x0 DUP1 REVERT JUMPDEST POP POP DUP1 CALLDATALOAD SWAP3 PUSH1 0x20 SWAP1 SWAP2 ADD CALLDATALOAD SWAP2 POP JUMP JUMPDEST PUSH1 0x20 DUP1 DUP3 MSTORE PUSH1 0x1E SWAP1 DUP3 ADD MSTORE PUSH32 0x596F75206D7573742062652074686520636F6E7472616374206F776E65720000 PUSH1 0x40 DUP3 ADD MSTORE PUSH1 0x60 ADD SWAP1 JUMP JUMPDEST PUSH4 0x4E487B71 PUSH1 0xE0 SHL PUSH1 0x0 MSTORE PUSH1 0x11 PUSH1 0x4 MSTORE PUSH1 0x24 PUSH1 0x0 REVERT JUMPDEST PUSH1 0x0 DUP3 DUP3 LT ISZERO PUSH2 0x1442 JUMPI PUSH2 0x1442 PUSH2 0x141A JUMP JUMPDEST POP SUB SWAP1 JUMP JUMPDEST PUSH1 0x1 DUP2 DUP2 SHR SWAP1 DUP3 AND DUP1 PUSH2 0x145B JUMPI PUSH1 0x7F DUP3 AND SWAP2 POP JUMPDEST PUSH1 0x20 DUP3 LT DUP2 EQ ISZERO PUSH2 0x147C JUMPI PUSH4 0x4E487B71 PUSH1 0xE0 SHL PUSH1 0x0 MSTORE PUSH1 0x22 PUSH1 0x4 MSTORE PUSH1 0x24 PUSH1 0x0 REVERT JUMPDEST POP SWAP2 SWAP1 POP JUMP JUMPDEST PUSH4 0x4E487B71 PUSH1 0xE0 SHL PUSH1 0x0 MSTORE PUSH1 0x32 PUSH1 0x4 MSTORE PUSH1 0x24 PUSH1 0x0 REVERT JUMPDEST PUSH1 0x1 DUP1 PUSH1 0xA0 SHL SUB DUP5 AND DUP2 MSTORE DUP3 PUSH1 0x20 DUP3 ADD MSTORE PUSH1 0x60 PUSH1 0x40 DUP3 ADD MSTORE PUSH1 0x0 PUSH2 0x14BF PUSH1 0x60 DUP4 ADD DUP5 PUSH2 0x12F3 JUMP JUMPDEST SWAP6 SWAP5 POP POP POP POP POP JUMP JUMPDEST PUSH1 0x0 DUP4 MLOAD PUSH2 0x14DA DUP2 DUP5 PUSH1 0x20 DUP9 ADD PUSH2 0x12C3 JUMP JUMPDEST DUP4 MLOAD SWAP1 DUP4 ADD SWAP1 PUSH2 0x14EE DUP2 DUP4 PUSH1 0x20 DUP9 ADD PUSH2 0x12C3 JUMP JUMPDEST ADD SWAP5 SWAP4 POP POP POP POP JUMP JUMPDEST PUSH1 0x0 DUP3 NOT DUP3 GT ISZERO PUSH2 0x150A JUMPI PUSH2 0x150A PUSH2 0x141A JUMP JUMPDEST POP ADD SWAP1 JUMP JUMPDEST PUSH1 0x0 PUSH1 0x20 DUP3 DUP5 SUB SLT ISZERO PUSH2 0x1521 JUMPI PUSH1 0x0 DUP1 REVERT JUMPDEST DUP2 MLOAD DUP1 ISZERO ISZERO DUP2 EQ PUSH2 0xE74 JUMPI PUSH1 0x0 DUP1 REVERT JUMPDEST PUSH1 0x0 PUSH1 0x0 NOT DUP3 EQ ISZERO PUSH2 0x1545 JUMPI PUSH2 0x1545 PUSH2 0x141A JUMP JUMPDEST POP PUSH1 0x1 ADD SWAP1 JUMP JUMPDEST PUSH4 0x4E487B71 PUSH1 0xE0 SHL PUSH1 0x0 MSTORE PUSH1 0x12 PUSH1 0x4 MSTORE PUSH1 0x24 PUSH1 0x0 REVERT JUMPDEST PUSH1 0x0 DUP3 PUSH2 0x1571 JUMPI PUSH2 0x1571 PUSH2 0x154C JUMP JUMPDEST POP DIV SWAP1 JUMP JUMPDEST PUSH1 0x0 DUP3 PUSH2 0x1585 JUMPI PUSH2 0x1585 PUSH2 0x154C JUMP JUMPDEST POP MOD SWAP1 JUMP INVALID LOG2 PUSH5 0x6970667358 0x22 SLT KECCAK256 KECCAK256 PUSH17 0x15E2F8444609117AC2095C7F0B3817CFD7 AND CALLDATASIZE 0xB0 0xD 0xC6 0xDF 0xD1 MOD 0x26 DUP16 PUSH16 0x5AFF64736F6C634300080B0033000000 ",
  "sha1": "7e1e952cb0c0527b34bb36132edb8a50e5a78bc1",
  "source": "//SPDX-License-Identifier: MIT\n\npragma solidity ^0.8.0;\n\nimport \"./ERC4671.sol\";\nimport \"./ERC4671URIStorage.sol\";\nimport \"@chainlink/contracts/src/v0.8/VRFConsumerBase.sol\";\n\ncontract Course is ERC4671URIStorage, VRFConsumerBase {\n    mapping(address => uint256) public OwnerToId;\n\n    // Events\n    event newCertificateCreated(address owner, uint256 id);\n    event newTokenUriSet(address owner, uint256 id, string uri);\n    event RequestedRandomness(bytes32 requestId);\n    event newRandomnessSetup(uint256 tokenId);\n\n    // Owner og the course on the Factory Contract\n    address public owner;\n    address private newOwnerOfToken;\n\n    // Variables for VRF\n    uint256 public fee;\n    bytes32 public keyhash;\n    mapping(uint256 => uint256) public randomnessToId;\n\n    constructor(\n        string memory _courseName,\n        string memory _tokenName,\n        address _owner,\n        address _vrfCoordinator,\n        address _linkToken,\n        uint256 _fee,\n        bytes32 _keyhash\n    )\n        VRFConsumerBase(_vrfCoordinator, _linkToken)\n        ERC4671(_courseName, _tokenName)\n    {\n        owner = _owner;\n        fee = _fee;\n        keyhash = _keyhash;\n    }\n\n    // This function creates a new Certificate and relates the owner\n    // address which the corresponding id\n    // Also uses the setTokenURI to set up the IPFS token URI to the ERC-4671\n\n    function createCertificate(address ownerOfCertificate) public {\n        require(owner == msg.sender, \"You must be the contract owner\");\n        _mint(ownerOfCertificate);\n        OwnerToId[ownerOfCertificate] = emittedCount();\n        bytes32 requestId = requestRandomness(keyhash, fee);\n        emit RequestedRandomness(requestId);\n\n        emit newCertificateCreated(ownerOfCertificate, OwnerToId[owner]);\n    }\n\n    function createTokenURI(uint256 _tokenId, string memory _tokenURI) public {\n        require(owner == msg.sender, \"You must be the contract owner\");\n        _setTokenURI(_tokenId, _tokenURI);\n        emit newTokenUriSet(\n            getOwnerBasedOnIndex(_tokenId),\n            _tokenId,\n            _tokenURI\n        );\n    }\n\n    function createCertificateAndSetToken(\n        address _ownerOfCertificate,\n        string memory _tokenURI\n    ) public {\n        require(owner == msg.sender, \"You must be the contract owner\");\n        _mint(_ownerOfCertificate);\n        OwnerToId[_ownerOfCertificate] = emittedCount() - 1;\n        newOwnerOfToken = _ownerOfCertificate;\n        _setTokenURI(OwnerToId[_ownerOfCertificate], _tokenURI);\n        bytes32 requestId = requestRandomness(keyhash, fee);\n        emit RequestedRandomness(requestId);\n\n        emit newCertificateCreated(\n            _ownerOfCertificate,\n            OwnerToId[_ownerOfCertificate]\n        );\n    }\n\n    function getRandomnessBasedOnId(uint256 _indexOfToken)\n        public\n        view\n        returns (uint256)\n    {\n        return randomnessToId[_indexOfToken];\n    }\n\n    function fulfillRandomness(bytes32 _requestId, uint256 _randomness)\n        internal\n        override\n    {\n        require(_randomness > 0, \"Randomness not found\");\n        uint256 indexOfToken = OwnerToId[newOwnerOfToken];\n        randomnessToId[indexOfToken] = _randomness;\n        emit newRandomnessSetup(indexOfToken);\n    }\n}\n",
  "sourcePath": "contracts/Course.sol",
  "type": "contract"
}