{
  "abi": [
    {
      "anonymous": false,
      "inputs": [
        {
          "indexed": false,
          "internalType": "address",
          "name": "owner",
          "type": "address"
        },
        {
          "indexed": false,
          "internalType": "address",
          "name": "token",
          "type": "address"
        }
      ],
      "name": "Added",
      "type": "event"
    },
    {
      "anonymous": false,
      "inputs": [
        {
          "indexed": false,
          "internalType": "address",
          "name": "owner",
          "type": "address"
        },
        {
          "indexed": false,
          "internalType": "address",
          "name": "token",
          "type": "address"
        }
      ],
      "name": "Removed",
      "type": "event"
    },
    {
      "inputs": [
        {
          "internalType": "address",
          "name": "token",
          "type": "address"
        }
      ],
      "name": "add",
      "outputs": [],
      "stateMutability": "nonpayable",
      "type": "function"
    },
    {
      "inputs": [
        {
          "internalType": "address",
          "name": "owner",
          "type": "address"
        }
      ],
      "name": "get",
      "outputs": [
        {
          "internalType": "address[]",
          "name": "",
          "type": "address[]"
        }
      ],
      "stateMutability": "view",
      "type": "function"
    },
    {
      "inputs": [
        {
          "internalType": "address",
          "name": "token",
          "type": "address"
        }
      ],
      "name": "remove",
      "outputs": [],
      "stateMutability": "nonpayable",
      "type": "function"
    },
    {
      "inputs": [
        {
          "internalType": "bytes4",
          "name": "interfaceId",
          "type": "bytes4"
        }
      ],
      "name": "supportsInterface",
      "outputs": [
        {
          "internalType": "bool",
          "name": "",
          "type": "bool"
        }
      ],
      "stateMutability": "view",
      "type": "function"
    }
  ],
  "bytecode": "608060405234801561001057600080fd5b5061056e806100206000396000f3fe608060405234801561001057600080fd5b506004361061004c5760003560e01c806301ffc9a7146100515780630a3b0a4f1461007957806329092d0e1461008e578063c2bc2efc146100a1575b600080fd5b61006461005f366004610447565b6100c1565b60405190151581526020015b60405180910390f35b61008c610087366004610471565b6100f8565b005b61008c61009c366004610471565b610181565b6100b46100af366004610471565b61033b565b604051610070919061049a565b60006001600160e01b0319821663e18e09bd60e01b14806100f257506301ffc9a760e01b6001600160e01b03198316145b92915050565b33600081815260208181526040808320805460018085528386206001600160a01b0389168088529086528487208390559082018355828652948490200180546001600160a01b03191685179055815194855291840192909252917f938c63ac3d228b23f6bee7618fefc6790522e338ac202c958a2ea9eb9706c5d1910160405180910390a15050565b600061018d33836103af565b3360009081526020819052604090208054919250906101ae906001906104e7565b8214156101de573360009081526001602090815260408083206001600160a01b0387168452909152812055610237565b3360009081526001602081905260408220835485939192859161020191906104e7565b815481106102115761021161050c565b60009182526020808320909101546001600160a01b031683528201929092526040019020555b80548190610247906001906104e7565b815481106102575761025761050c565b9060005260206000200160009054906101000a90046001600160a01b03168183815481106102875761028761050c565b9060005260206000200160006101000a8154816001600160a01b0302191690836001600160a01b03160217905550808054806102c5576102c5610522565b600082815260209020810160001990810180546001600160a01b03191690550190556040517f40e634d0e26d9ec2e860e4dd9b7b2cfbb569b6058362a1a54d3a94718bc495879061032e90339086906001600160a01b0392831681529116602082015260400190565b60405180910390a1505050565b6001600160a01b038116600090815260208181526040918290208054835181840281018401909452808452606093928301828280156103a357602002820191906000526020600020905b81546001600160a01b03168152600190910190602001808311610385575b50505050509050919050565b6001600160a01b038083166000908152600160209081526040808320938516835292905290812054801515806103fc57506001600160a01b03841660009081526020819052604090205415155b6104405760405162461bcd60e51b81526020600482015260116024820152701059191c995cdcc81b9bdd08199bdd5b99607a1b604482015260640160405180910390fd5b9392505050565b60006020828403121561045957600080fd5b81356001600160e01b03198116811461044057600080fd5b60006020828403121561048357600080fd5b81356001600160a01b038116811461044057600080fd5b6020808252825182820181905260009190848201906040850190845b818110156104db5783516001600160a01b0316835292840192918401916001016104b6565b50909695505050505050565b60008282101561050757634e487b7160e01b600052601160045260246000fd5b500390565b634e487b7160e01b600052603260045260246000fd5b634e487b7160e01b600052603160045260246000fdfea2646970667358221220f3c6067c3c4d3eb98755d02d0f9404ed5a982bb4d4aba63068bfc87fdec0580064736f6c634300080b0033",
  "bytecodeSha1": "534f2d07d9a164ba052b82b9bec879268197f696",
  "compiler": {
    "evm_version": "istanbul",
    "optimizer": {
      "enabled": true,
      "runs": 200
    },
    "version": "0.8.11+commit.d7f03943"
  },
  "contractName": "ERC4671Store",
  "language": "Solidity",
  "natspec": {
    "kind": "dev",
    "methods": {
      "add(address)": {
        "notice": "Add a IERC4671Enumerable contract address to the caller's record",
        "params": {
          "token": "Address of the IERC4671Enumerable contract to add"
        }
      },
      "get(address)": {
        "notice": "Get all the IERC4671Enumerable contracts for a given owner",
        "params": {
          "owner": "Address for which to retrieve the IERC4671Enumerable contracts"
        }
      },
      "remove(address)": {
        "notice": "Remove a IERC4671Enumerable contract from the caller's record",
        "params": {
          "token": "Address of the IERC4671Enumerable contract to remove"
        }
      }
    },
    "version": 1
  },
  "opcodes": "PUSH1 0x80 PUSH1 0x40 MSTORE CALLVALUE DUP1 ISZERO PUSH2 0x10 JUMPI PUSH1 0x0 DUP1 REVERT JUMPDEST POP PUSH1 0x4 CALLDATASIZE LT PUSH2 0x4C JUMPI PUSH1 0x0 CALLDATALOAD PUSH1 0xE0 SHR DUP1 PUSH4 0x1FFC9A7 EQ PUSH2 0x51 JUMPI DUP1 PUSH4 0xA3B0A4F EQ PUSH2 0x79 JUMPI DUP1 PUSH4 0x29092D0E EQ PUSH2 0x8E JUMPI DUP1 PUSH4 0xC2BC2EFC EQ PUSH2 0xA1 JUMPI JUMPDEST PUSH1 0x0 DUP1 REVERT JUMPDEST PUSH2 0x64 PUSH2 0x5F CALLDATASIZE PUSH1 0x4 PUSH2 0x447 JUMP JUMPDEST PUSH2 0xC1 JUMP JUMPDEST PUSH1 0x40 MLOAD SWAP1 ISZERO ISZERO DUP2 MSTORE PUSH1 0x20 ADD JUMPDEST PUSH1 0x40 MLOAD DUP1 SWAP2 SUB SWAP1 RETURN JUMPDEST PUSH2 0x8C PUSH2 0x87 CALLDATASIZE PUSH1 0x4 PUSH2 0x471 JUMP JUMPDEST PUSH2 0xF8 JUMP JUMPDEST STOP JUMPDEST PUSH2 0x8C PUSH2 0x9C CALLDATASIZE PUSH1 0x4 PUSH2 0x471 JUMP JUMPDEST PUSH2 0x181 JUMP JUMPDEST PUSH2 0xB4 PUSH2 0xAF CALLDATASIZE PUSH1 0x4 PUSH2 0x471 JUMP JUMPDEST PUSH2 0x33B JUMP JUMPDEST PUSH1 0x40 MLOAD PUSH2 0x70 SWAP2 SWAP1 PUSH2 0x49A JUMP JUMPDEST PUSH1 0x0 PUSH1 0x1 PUSH1 0x1 PUSH1 0xE0 SHL SUB NOT DUP3 AND PUSH4 0xE18E09BD PUSH1 0xE0 SHL EQ DUP1 PUSH2 0xF2 JUMPI POP PUSH4 0x1FFC9A7 PUSH1 0xE0 SHL PUSH1 0x1 PUSH1 0x1 PUSH1 0xE0 SHL SUB NOT DUP4 AND EQ JUMPDEST SWAP3 SWAP2 POP POP JUMP JUMPDEST CALLER PUSH1 0x0 DUP2 DUP2 MSTORE PUSH1 0x20 DUP2 DUP2 MSTORE PUSH1 0x40 DUP1 DUP4 KECCAK256 DUP1 SLOAD PUSH1 0x1 DUP1 DUP6 MSTORE DUP4 DUP7 KECCAK256 PUSH1 0x1 PUSH1 0x1 PUSH1 0xA0 SHL SUB DUP10 AND DUP1 DUP9 MSTORE SWAP1 DUP7 MSTORE DUP5 DUP8 KECCAK256 DUP4 SWAP1 SSTORE SWAP1 DUP3 ADD DUP4 SSTORE DUP3 DUP7 MSTORE SWAP5 DUP5 SWAP1 KECCAK256 ADD DUP1 SLOAD PUSH1 0x1 PUSH1 0x1 PUSH1 0xA0 SHL SUB NOT AND DUP6 OR SWAP1 SSTORE DUP2 MLOAD SWAP5 DUP6 MSTORE SWAP2 DUP5 ADD SWAP3 SWAP1 SWAP3 MSTORE SWAP2 PUSH32 0x938C63AC3D228B23F6BEE7618FEFC6790522E338AC202C958A2EA9EB9706C5D1 SWAP2 ADD PUSH1 0x40 MLOAD DUP1 SWAP2 SUB SWAP1 LOG1 POP POP JUMP JUMPDEST PUSH1 0x0 PUSH2 0x18D CALLER DUP4 PUSH2 0x3AF JUMP JUMPDEST CALLER PUSH1 0x0 SWAP1 DUP2 MSTORE PUSH1 0x20 DUP2 SWAP1 MSTORE PUSH1 0x40 SWAP1 KECCAK256 DUP1 SLOAD SWAP2 SWAP3 POP SWAP1 PUSH2 0x1AE SWAP1 PUSH1 0x1 SWAP1 PUSH2 0x4E7 JUMP JUMPDEST DUP3 EQ ISZERO PUSH2 0x1DE JUMPI CALLER PUSH1 0x0 SWAP1 DUP2 MSTORE PUSH1 0x1 PUSH1 0x20 SWAP1 DUP2 MSTORE PUSH1 0x40 DUP1 DUP4 KECCAK256 PUSH1 0x1 PUSH1 0x1 PUSH1 0xA0 SHL SUB DUP8 AND DUP5 MSTORE SWAP1 SWAP2 MSTORE DUP2 KECCAK256 SSTORE PUSH2 0x237 JUMP JUMPDEST CALLER PUSH1 0x0 SWAP1 DUP2 MSTORE PUSH1 0x1 PUSH1 0x20 DUP2 SWAP1 MSTORE PUSH1 0x40 DUP3 KECCAK256 DUP4 SLOAD DUP6 SWAP4 SWAP2 SWAP3 DUP6 SWAP2 PUSH2 0x201 SWAP2 SWAP1 PUSH2 0x4E7 JUMP JUMPDEST DUP2 SLOAD DUP2 LT PUSH2 0x211 JUMPI PUSH2 0x211 PUSH2 0x50C JUMP JUMPDEST PUSH1 0x0 SWAP2 DUP3 MSTORE PUSH1 0x20 DUP1 DUP4 KECCAK256 SWAP1 SWAP2 ADD SLOAD PUSH1 0x1 PUSH1 0x1 PUSH1 0xA0 SHL SUB AND DUP4 MSTORE DUP3 ADD SWAP3 SWAP1 SWAP3 MSTORE PUSH1 0x40 ADD SWAP1 KECCAK256 SSTORE JUMPDEST DUP1 SLOAD DUP2 SWAP1 PUSH2 0x247 SWAP1 PUSH1 0x1 SWAP1 PUSH2 0x4E7 JUMP JUMPDEST DUP2 SLOAD DUP2 LT PUSH2 0x257 JUMPI PUSH2 0x257 PUSH2 0x50C JUMP JUMPDEST SWAP1 PUSH1 0x0 MSTORE PUSH1 0x20 PUSH1 0x0 KECCAK256 ADD PUSH1 0x0 SWAP1 SLOAD SWAP1 PUSH2 0x100 EXP SWAP1 DIV PUSH1 0x1 PUSH1 0x1 PUSH1 0xA0 SHL SUB AND DUP2 DUP4 DUP2 SLOAD DUP2 LT PUSH2 0x287 JUMPI PUSH2 0x287 PUSH2 0x50C JUMP JUMPDEST SWAP1 PUSH1 0x0 MSTORE PUSH1 0x20 PUSH1 0x0 KECCAK256 ADD PUSH1 0x0 PUSH2 0x100 EXP DUP2 SLOAD DUP2 PUSH1 0x1 PUSH1 0x1 PUSH1 0xA0 SHL SUB MUL NOT AND SWAP1 DUP4 PUSH1 0x1 PUSH1 0x1 PUSH1 0xA0 SHL SUB AND MUL OR SWAP1 SSTORE POP DUP1 DUP1 SLOAD DUP1 PUSH2 0x2C5 JUMPI PUSH2 0x2C5 PUSH2 0x522 JUMP JUMPDEST PUSH1 0x0 DUP3 DUP2 MSTORE PUSH1 0x20 SWAP1 KECCAK256 DUP2 ADD PUSH1 0x0 NOT SWAP1 DUP2 ADD DUP1 SLOAD PUSH1 0x1 PUSH1 0x1 PUSH1 0xA0 SHL SUB NOT AND SWAP1 SSTORE ADD SWAP1 SSTORE PUSH1 0x40 MLOAD PUSH32 0x40E634D0E26D9EC2E860E4DD9B7B2CFBB569B6058362A1A54D3A94718BC49587 SWAP1 PUSH2 0x32E SWAP1 CALLER SWAP1 DUP7 SWAP1 PUSH1 0x1 PUSH1 0x1 PUSH1 0xA0 SHL SUB SWAP3 DUP4 AND DUP2 MSTORE SWAP2 AND PUSH1 0x20 DUP3 ADD MSTORE PUSH1 0x40 ADD SWAP1 JUMP JUMPDEST PUSH1 0x40 MLOAD DUP1 SWAP2 SUB SWAP1 LOG1 POP POP POP JUMP JUMPDEST PUSH1 0x1 PUSH1 0x1 PUSH1 0xA0 SHL SUB DUP2 AND PUSH1 0x0 SWAP1 DUP2 MSTORE PUSH1 0x20 DUP2 DUP2 MSTORE PUSH1 0x40 SWAP2 DUP3 SWAP1 KECCAK256 DUP1 SLOAD DUP4 MLOAD DUP2 DUP5 MUL DUP2 ADD DUP5 ADD SWAP1 SWAP5 MSTORE DUP1 DUP5 MSTORE PUSH1 0x60 SWAP4 SWAP3 DUP4 ADD DUP3 DUP3 DUP1 ISZERO PUSH2 0x3A3 JUMPI PUSH1 0x20 MUL DUP3 ADD SWAP2 SWAP1 PUSH1 0x0 MSTORE PUSH1 0x20 PUSH1 0x0 KECCAK256 SWAP1 JUMPDEST DUP2 SLOAD PUSH1 0x1 PUSH1 0x1 PUSH1 0xA0 SHL SUB AND DUP2 MSTORE PUSH1 0x1 SWAP1 SWAP2 ADD SWAP1 PUSH1 0x20 ADD DUP1 DUP4 GT PUSH2 0x385 JUMPI JUMPDEST POP POP POP POP POP SWAP1 POP SWAP2 SWAP1 POP JUMP JUMPDEST PUSH1 0x1 PUSH1 0x1 PUSH1 0xA0 SHL SUB DUP1 DUP4 AND PUSH1 0x0 SWAP1 DUP2 MSTORE PUSH1 0x1 PUSH1 0x20 SWAP1 DUP2 MSTORE PUSH1 0x40 DUP1 DUP4 KECCAK256 SWAP4 DUP6 AND DUP4 MSTORE SWAP3 SWAP1 MSTORE SWAP1 DUP2 KECCAK256 SLOAD DUP1 ISZERO ISZERO DUP1 PUSH2 0x3FC JUMPI POP PUSH1 0x1 PUSH1 0x1 PUSH1 0xA0 SHL SUB DUP5 AND PUSH1 0x0 SWAP1 DUP2 MSTORE PUSH1 0x20 DUP2 SWAP1 MSTORE PUSH1 0x40 SWAP1 KECCAK256 SLOAD ISZERO ISZERO JUMPDEST PUSH2 0x440 JUMPI PUSH1 0x40 MLOAD PUSH3 0x461BCD PUSH1 0xE5 SHL DUP2 MSTORE PUSH1 0x20 PUSH1 0x4 DUP3 ADD MSTORE PUSH1 0x11 PUSH1 0x24 DUP3 ADD MSTORE PUSH17 0x1059191C995CDCC81B9BDD08199BDD5B99 PUSH1 0x7A SHL PUSH1 0x44 DUP3 ADD MSTORE PUSH1 0x64 ADD PUSH1 0x40 MLOAD DUP1 SWAP2 SUB SWAP1 REVERT JUMPDEST SWAP4 SWAP3 POP POP POP JUMP JUMPDEST PUSH1 0x0 PUSH1 0x20 DUP3 DUP5 SUB SLT ISZERO PUSH2 0x459 JUMPI PUSH1 0x0 DUP1 REVERT JUMPDEST DUP2 CALLDATALOAD PUSH1 0x1 PUSH1 0x1 PUSH1 0xE0 SHL SUB NOT DUP2 AND DUP2 EQ PUSH2 0x440 JUMPI PUSH1 0x0 DUP1 REVERT JUMPDEST PUSH1 0x0 PUSH1 0x20 DUP3 DUP5 SUB SLT ISZERO PUSH2 0x483 JUMPI PUSH1 0x0 DUP1 REVERT JUMPDEST DUP2 CALLDATALOAD PUSH1 0x1 PUSH1 0x1 PUSH1 0xA0 SHL SUB DUP2 AND DUP2 EQ PUSH2 0x440 JUMPI PUSH1 0x0 DUP1 REVERT JUMPDEST PUSH1 0x20 DUP1 DUP3 MSTORE DUP3 MLOAD DUP3 DUP3 ADD DUP2 SWAP1 MSTORE PUSH1 0x0 SWAP2 SWAP1 DUP5 DUP3 ADD SWAP1 PUSH1 0x40 DUP6 ADD SWAP1 DUP5 JUMPDEST DUP2 DUP2 LT ISZERO PUSH2 0x4DB JUMPI DUP4 MLOAD PUSH1 0x1 PUSH1 0x1 PUSH1 0xA0 SHL SUB AND DUP4 MSTORE SWAP3 DUP5 ADD SWAP3 SWAP2 DUP5 ADD SWAP2 PUSH1 0x1 ADD PUSH2 0x4B6 JUMP JUMPDEST POP SWAP1 SWAP7 SWAP6 POP POP POP POP POP POP JUMP JUMPDEST PUSH1 0x0 DUP3 DUP3 LT ISZERO PUSH2 0x507 JUMPI PUSH4 0x4E487B71 PUSH1 0xE0 SHL PUSH1 0x0 MSTORE PUSH1 0x11 PUSH1 0x4 MSTORE PUSH1 0x24 PUSH1 0x0 REVERT JUMPDEST POP SUB SWAP1 JUMP JUMPDEST PUSH4 0x4E487B71 PUSH1 0xE0 SHL PUSH1 0x0 MSTORE PUSH1 0x32 PUSH1 0x4 MSTORE PUSH1 0x24 PUSH1 0x0 REVERT JUMPDEST PUSH4 0x4E487B71 PUSH1 0xE0 SHL PUSH1 0x0 MSTORE PUSH1 0x31 PUSH1 0x4 MSTORE PUSH1 0x24 PUSH1 0x0 REVERT INVALID LOG2 PUSH5 0x6970667358 0x22 SLT KECCAK256 RETURN 0xC6 MOD PUSH29 0x3C4D3EB98755D02D0F9404ED5A982BB4D4ABA63068BFC87FDEC0580064 PUSH20 0x6F6C634300080B00330000000000000000000000 ",
  "sha1": "cfa54805752b00ffe817aabc70f8aefc7832736c",
  "source": "// SPDX-License-Identifier: MIT\n\npragma solidity ^0.8.0;\n\nimport \"@openzeppelin/contracts/utils/introspection/ERC165.sol\";\n\nimport \"../interfaces/IERC4671Store.sol\";\n\ncontract ERC4671Store is IERC4671Store, ERC165 {\n    // Mapping from owner to IERC4671Enumerable contracts\n    mapping(address => address[]) private _records;\n\n    // Mapping from owner to IERC4671Enumerable contract index\n    mapping(address => mapping(address => uint256)) _indices;\n\n    /// @notice Add a IERC4671Enumerable contract address to the caller's record\n    /// @param token Address of the IERC4671Enumerable contract to add\n    function add(address token) public virtual override {\n        address[] storage contracts = _records[msg.sender];\n        _indices[msg.sender][token] = contracts.length;\n        contracts.push(token);\n        emit Added(msg.sender, token);\n    }\n\n    /// @notice Remove a IERC4671Enumerable contract from the caller's record\n    /// @param token Address of the IERC4671Enumerable contract to remove\n    function remove(address token) public virtual override {\n        uint256 index = _indexOfTokenOrRevert(msg.sender, token);\n        address[] storage contracts = _records[msg.sender];\n        if (index == contracts.length - 1) {\n            _indices[msg.sender][token] = 0;\n        } else {\n            _indices[msg.sender][contracts[contracts.length - 1]] = index;\n        }\n        contracts[index] = contracts[contracts.length - 1];\n        contracts.pop();\n        emit Removed(msg.sender, token);\n    }\n\n    /// @notice Get all the IERC4671Enumerable contracts for a given owner\n    /// @param owner Address for which to retrieve the IERC4671Enumerable contracts\n    function get(address owner)\n        public\n        view\n        virtual\n        override\n        returns (address[] memory)\n    {\n        return _records[owner];\n    }\n\n    function supportsInterface(bytes4 interfaceId)\n        public\n        view\n        virtual\n        override(ERC165, IERC165)\n        returns (bool)\n    {\n        return\n            interfaceId == type(IERC4671Store).interfaceId ||\n            super.supportsInterface(interfaceId);\n    }\n\n    function _indexOfTokenOrRevert(address owner, address token)\n        private\n        view\n        returns (uint256)\n    {\n        uint256 index = _indices[owner][token];\n        require(index > 0 || _records[owner].length > 0, \"Address not found\");\n        return index;\n    }\n}\n",
  "sourcePath": "contracts/ERC4671Store.sol",
  "type": "contract"
}